{
  "contractName": "POM",
  "abi": [
    {
      "inputs": [],
      "stateMutability": "nonpayable",
      "type": "constructor"
    },
    {
      "anonymous": false,
      "inputs": [
        {
          "indexed": true,
          "internalType": "address",
          "name": "account",
          "type": "address"
        },
        {
          "indexed": true,
          "internalType": "address",
          "name": "operator",
          "type": "address"
        },
        {
          "indexed": false,
          "internalType": "bool",
          "name": "approved",
          "type": "bool"
        }
      ],
      "name": "ApprovalForAll",
      "type": "event"
    },
    {
      "anonymous": false,
      "inputs": [
        {
          "indexed": true,
          "internalType": "address",
          "name": "previousOwner",
          "type": "address"
        },
        {
          "indexed": true,
          "internalType": "address",
          "name": "newOwner",
          "type": "address"
        }
      ],
      "name": "OwnershipTransferred",
      "type": "event"
    },
    {
      "anonymous": false,
      "inputs": [
        {
          "indexed": false,
          "internalType": "address",
          "name": "account",
          "type": "address"
        }
      ],
      "name": "Paused",
      "type": "event"
    },
    {
      "anonymous": false,
      "inputs": [
        {
          "indexed": true,
          "internalType": "address",
          "name": "operator",
          "type": "address"
        },
        {
          "indexed": true,
          "internalType": "address",
          "name": "from",
          "type": "address"
        },
        {
          "indexed": true,
          "internalType": "address",
          "name": "to",
          "type": "address"
        },
        {
          "indexed": false,
          "internalType": "uint256[]",
          "name": "ids",
          "type": "uint256[]"
        },
        {
          "indexed": false,
          "internalType": "uint256[]",
          "name": "values",
          "type": "uint256[]"
        }
      ],
      "name": "TransferBatch",
      "type": "event"
    },
    {
      "anonymous": false,
      "inputs": [
        {
          "indexed": true,
          "internalType": "address",
          "name": "operator",
          "type": "address"
        },
        {
          "indexed": true,
          "internalType": "address",
          "name": "from",
          "type": "address"
        },
        {
          "indexed": true,
          "internalType": "address",
          "name": "to",
          "type": "address"
        },
        {
          "indexed": false,
          "internalType": "uint256",
          "name": "id",
          "type": "uint256"
        },
        {
          "indexed": false,
          "internalType": "uint256",
          "name": "value",
          "type": "uint256"
        }
      ],
      "name": "TransferSingle",
      "type": "event"
    },
    {
      "anonymous": false,
      "inputs": [
        {
          "indexed": false,
          "internalType": "string",
          "name": "value",
          "type": "string"
        },
        {
          "indexed": true,
          "internalType": "uint256",
          "name": "id",
          "type": "uint256"
        }
      ],
      "name": "URI",
      "type": "event"
    },
    {
      "anonymous": false,
      "inputs": [
        {
          "indexed": false,
          "internalType": "address",
          "name": "account",
          "type": "address"
        }
      ],
      "name": "Unpaused",
      "type": "event"
    },
    {
      "inputs": [
        {
          "internalType": "address",
          "name": "account",
          "type": "address"
        },
        {
          "internalType": "uint256",
          "name": "id",
          "type": "uint256"
        }
      ],
      "name": "balanceOf",
      "outputs": [
        {
          "internalType": "uint256",
          "name": "",
          "type": "uint256"
        }
      ],
      "stateMutability": "view",
      "type": "function",
      "constant": true
    },
    {
      "inputs": [
        {
          "internalType": "address[]",
          "name": "accounts",
          "type": "address[]"
        },
        {
          "internalType": "uint256[]",
          "name": "ids",
          "type": "uint256[]"
        }
      ],
      "name": "balanceOfBatch",
      "outputs": [
        {
          "internalType": "uint256[]",
          "name": "",
          "type": "uint256[]"
        }
      ],
      "stateMutability": "view",
      "type": "function",
      "constant": true
    },
    {
      "inputs": [
        {
          "internalType": "address",
          "name": "account",
          "type": "address"
        },
        {
          "internalType": "uint256",
          "name": "id",
          "type": "uint256"
        },
        {
          "internalType": "uint256",
          "name": "value",
          "type": "uint256"
        }
      ],
      "name": "burn",
      "outputs": [],
      "stateMutability": "nonpayable",
      "type": "function"
    },
    {
      "inputs": [
        {
          "internalType": "address",
          "name": "account",
          "type": "address"
        },
        {
          "internalType": "uint256[]",
          "name": "ids",
          "type": "uint256[]"
        },
        {
          "internalType": "uint256[]",
          "name": "values",
          "type": "uint256[]"
        }
      ],
      "name": "burnBatch",
      "outputs": [],
      "stateMutability": "nonpayable",
      "type": "function"
    },
    {
      "inputs": [
        {
          "internalType": "uint256",
          "name": "id",
          "type": "uint256"
        }
      ],
      "name": "exists",
      "outputs": [
        {
          "internalType": "bool",
          "name": "",
          "type": "bool"
        }
      ],
      "stateMutability": "view",
      "type": "function",
      "constant": true
    },
    {
      "inputs": [
        {
          "internalType": "address",
          "name": "account",
          "type": "address"
        },
        {
          "internalType": "address",
          "name": "operator",
          "type": "address"
        }
      ],
      "name": "isApprovedForAll",
      "outputs": [
        {
          "internalType": "bool",
          "name": "",
          "type": "bool"
        }
      ],
      "stateMutability": "view",
      "type": "function",
      "constant": true
    },
    {
      "inputs": [],
      "name": "owner",
      "outputs": [
        {
          "internalType": "address",
          "name": "",
          "type": "address"
        }
      ],
      "stateMutability": "view",
      "type": "function",
      "constant": true
    },
    {
      "inputs": [],
      "name": "paused",
      "outputs": [
        {
          "internalType": "bool",
          "name": "",
          "type": "bool"
        }
      ],
      "stateMutability": "view",
      "type": "function",
      "constant": true
    },
    {
      "inputs": [],
      "name": "renounceOwnership",
      "outputs": [],
      "stateMutability": "nonpayable",
      "type": "function"
    },
    {
      "inputs": [
        {
          "internalType": "address",
          "name": "from",
          "type": "address"
        },
        {
          "internalType": "address",
          "name": "to",
          "type": "address"
        },
        {
          "internalType": "uint256[]",
          "name": "ids",
          "type": "uint256[]"
        },
        {
          "internalType": "uint256[]",
          "name": "amounts",
          "type": "uint256[]"
        },
        {
          "internalType": "bytes",
          "name": "data",
          "type": "bytes"
        }
      ],
      "name": "safeBatchTransferFrom",
      "outputs": [],
      "stateMutability": "nonpayable",
      "type": "function"
    },
    {
      "inputs": [
        {
          "internalType": "address",
          "name": "from",
          "type": "address"
        },
        {
          "internalType": "address",
          "name": "to",
          "type": "address"
        },
        {
          "internalType": "uint256",
          "name": "id",
          "type": "uint256"
        },
        {
          "internalType": "uint256",
          "name": "amount",
          "type": "uint256"
        },
        {
          "internalType": "bytes",
          "name": "data",
          "type": "bytes"
        }
      ],
      "name": "safeTransferFrom",
      "outputs": [],
      "stateMutability": "nonpayable",
      "type": "function"
    },
    {
      "inputs": [
        {
          "internalType": "address",
          "name": "operator",
          "type": "address"
        },
        {
          "internalType": "bool",
          "name": "approved",
          "type": "bool"
        }
      ],
      "name": "setApprovalForAll",
      "outputs": [],
      "stateMutability": "nonpayable",
      "type": "function"
    },
    {
      "inputs": [
        {
          "internalType": "bytes4",
          "name": "interfaceId",
          "type": "bytes4"
        }
      ],
      "name": "supportsInterface",
      "outputs": [
        {
          "internalType": "bool",
          "name": "",
          "type": "bool"
        }
      ],
      "stateMutability": "view",
      "type": "function",
      "constant": true
    },
    {
      "inputs": [
        {
          "internalType": "address",
          "name": "newOwner",
          "type": "address"
        }
      ],
      "name": "transferOwnership",
      "outputs": [],
      "stateMutability": "nonpayable",
      "type": "function"
    },
    {
      "inputs": [
        {
          "internalType": "uint256",
          "name": "",
          "type": "uint256"
        }
      ],
      "name": "uri",
      "outputs": [
        {
          "internalType": "string",
          "name": "",
          "type": "string"
        }
      ],
      "stateMutability": "view",
      "type": "function",
      "constant": true
    },
    {
      "inputs": [
        {
          "internalType": "string",
          "name": "newuri",
          "type": "string"
        }
      ],
      "name": "setURI",
      "outputs": [],
      "stateMutability": "nonpayable",
      "type": "function"
    },
    {
      "inputs": [],
      "name": "pause",
      "outputs": [],
      "stateMutability": "nonpayable",
      "type": "function"
    },
    {
      "inputs": [],
      "name": "unpause",
      "outputs": [],
      "stateMutability": "nonpayable",
      "type": "function"
    },
    {
      "inputs": [],
      "name": "tokenCounter",
      "outputs": [
        {
          "internalType": "uint256",
          "name": "",
          "type": "uint256"
        }
      ],
      "stateMutability": "view",
      "type": "function",
      "constant": true
    },
    {
      "inputs": [
        {
          "internalType": "uint256",
          "name": "id",
          "type": "uint256"
        }
      ],
      "name": "totalSupply",
      "outputs": [
        {
          "internalType": "uint256",
          "name": "",
          "type": "uint256"
        }
      ],
      "stateMutability": "view",
      "type": "function",
      "constant": true
    },
    {
      "inputs": [
        {
          "internalType": "address",
          "name": "account",
          "type": "address"
        },
        {
          "internalType": "uint256",
          "name": "id",
          "type": "uint256"
        },
        {
          "internalType": "uint256",
          "name": "amount",
          "type": "uint256"
        },
        {
          "internalType": "bytes",
          "name": "data",
          "type": "bytes"
        }
      ],
      "name": "mint",
      "outputs": [],
      "stateMutability": "nonpayable",
      "type": "function"
    },
    {
      "inputs": [
        {
          "internalType": "address",
          "name": "to",
          "type": "address"
        },
        {
          "internalType": "uint256[]",
          "name": "ids",
          "type": "uint256[]"
        },
        {
          "internalType": "uint256[]",
          "name": "amounts",
          "type": "uint256[]"
        },
        {
          "internalType": "bytes",
          "name": "data",
          "type": "bytes"
        }
      ],
      "name": "mintBatch",
      "outputs": [],
      "stateMutability": "nonpayable",
      "type": "function"
    }
  ],
  "bytecode": "0x608060405234801562000010575f80fd5b5060405180602001604052805f81525062000031816200009960201b60201c565b506200005262000046620000ae60201b60201c565b620000b560201b60201c565b5f600360146101000a81548160ff0219169083151502179055505f60068190555060405180602001604052805f81525060079081620000929190620003dc565b50620004c0565b8060029081620000aa9190620003dc565b5050565b5f33905090565b5f60035f9054906101000a900473ffffffffffffffffffffffffffffffffffffffff1690508160035f6101000a81548173ffffffffffffffffffffffffffffffffffffffff021916908373ffffffffffffffffffffffffffffffffffffffff1602179055508173ffffffffffffffffffffffffffffffffffffffff168173ffffffffffffffffffffffffffffffffffffffff167f8be0079c531659141344cd1fd0a4f28419497f9722a3daafe3b4186f6b6457e060405160405180910390a35050565b5f81519050919050565b7f4e487b71000000000000000000000000000000000000000000000000000000005f52604160045260245ffd5b7f4e487b71000000000000000000000000000000000000000000000000000000005f52602260045260245ffd5b5f6002820490506001821680620001f457607f821691505b6020821081036200020a5762000209620001af565b5b50919050565b5f819050815f5260205f209050919050565b5f6020601f8301049050919050565b5f82821b905092915050565b5f600883026200026e7fffffffffffffffffffffffffffffffffffffffffffffffffffffffffffffffff8262000231565b6200027a868362000231565b95508019841693508086168417925050509392505050565b5f819050919050565b5f819050919050565b5f620002c4620002be620002b88462000292565b6200029b565b62000292565b9050919050565b5f819050919050565b620002df83620002a4565b620002f7620002ee82620002cb565b8484546200023d565b825550505050565b5f90565b6200030d620002ff565b6200031a818484620002d4565b505050565b5b818110156200034157620003355f8262000303565b60018101905062000320565b5050565b601f82111562000390576200035a8162000210565b620003658462000222565b8101602085101562000375578190505b6200038d620003848562000222565b8301826200031f565b50505b505050565b5f82821c905092915050565b5f620003b25f198460080262000395565b1980831691505092915050565b5f620003cc8383620003a1565b9150826002028217905092915050565b620003e78262000178565b67ffffffffffffffff81111562000403576200040262000182565b5b6200040f8254620001dc565b6200041c82828562000345565b5f60209050601f83116001811462000452575f84156200043d578287015190505b620004498582620003bf565b865550620004b8565b601f198416620004628662000210565b5f5b828110156200048b5784890151825560018201915060208501945060208101905062000464565b86831015620004ab5784890151620004a7601f891682620003a1565b8355505b6001600288020188555050505b505050505050565b6140f780620004ce5f395ff3fe608060405234801561000f575f80fd5b506004361061013f575f3560e01c8063715018a6116100b6578063bd85b0391161007a578063bd85b03914610335578063d082e38114610365578063e985e9c514610383578063f242432a146103b3578063f2fde38b146103cf578063f5298aca146103eb5761013f565b8063715018a6146102cb578063731133e9146102d55780638456cb59146102f15780638da5cb5b146102fb578063a22cb465146103195761013f565b80632eb2c2d6116101085780632eb2c2d61461020b5780633f4ba83a146102275780634e1273f4146102315780634f558e79146102615780635c975abb146102915780636b20c454146102af5761013f565b8062fdd58e1461014357806301ffc9a71461017357806302fe5305146101a35780630e89341c146101bf5780631f7fdffa146101ef575b5f80fd5b61015d6004803603810190610158919061268c565b610407565b60405161016a91906126d9565b60405180910390f35b61018d60048036038101906101889190612747565b6104ca565b60405161019a919061278c565b60405180910390f35b6101bd60048036038101906101b891906128e1565b6105ab565b005b6101d960048036038101906101d49190612928565b6105bf565b6040516101e691906129cd565b60405180910390f35b61020960048036038101906102049190612b4f565b610651565b005b61022560048036038101906102209190612c07565b610709565b005b61022f6107aa565b005b61024b60048036038101906102469190612d92565b6107bc565b6040516102589190612ebf565b60405180910390f35b61027b60048036038101906102769190612928565b6108d3565b604051610288919061278c565b60405180910390f35b6102996108e6565b6040516102a6919061278c565b60405180910390f35b6102c960048036038101906102c49190612edf565b6108fc565b005b6102d3610999565b005b6102ef60048036038101906102ea9190612f67565b6109ac565b005b6102f9610a11565b005b610303610a23565b6040516103109190612ff6565b60405180910390f35b610333600480360381019061032e9190613039565b610a4b565b005b61034f600480360381019061034a9190612928565b610a61565b60405161035c91906126d9565b60405180910390f35b61036d610a7b565b60405161037a91906126d9565b60405180910390f35b61039d60048036038101906103989190613077565b610a84565b6040516103aa919061278c565b60405180910390f35b6103cd60048036038101906103c891906130b5565b610b12565b005b6103e960048036038101906103e49190613148565b610bb3565b005b61040560048036038101906104009190613173565b610c35565b005b5f8073ffffffffffffffffffffffffffffffffffffffff168373ffffffffffffffffffffffffffffffffffffffff1603610476576040517f08c379a000000000000000000000000000000000000000000000000000000000815260040161046d90613233565b60405180910390fd5b5f808381526020019081526020015f205f8473ffffffffffffffffffffffffffffffffffffffff1673ffffffffffffffffffffffffffffffffffffffff1681526020019081526020015f2054905092915050565b5f7fd9b67a26000000000000000000000000000000000000000000000000000000007bffffffffffffffffffffffffffffffffffffffffffffffffffffffff1916827bffffffffffffffffffffffffffffffffffffffffffffffffffffffff1916148061059457507f0e89341c000000000000000000000000000000000000000000000000000000007bffffffffffffffffffffffffffffffffffffffffffffffffffffffff1916827bffffffffffffffffffffffffffffffffffffffffffffffffffffffff1916145b806105a457506105a382610cd2565b5b9050919050565b6105b3610d3b565b6105bc81610db9565b50565b6060600280546105ce9061327e565b80601f01602080910402602001604051908101604052809291908181526020018280546105fa9061327e565b80156106455780601f1061061c57610100808354040283529160200191610645565b820191905f5260205f20905b81548152906001019060200180831161062857829003601f168201915b50505050509050919050565b610659610d3b565b5f5b83518110156106f65761068784828151811061067a576106796132ae565b5b60200260200101516108d3565b6106a35760065f81548092919061069d90613308565b91905055505b60055f8583815181106106b9576106b86132ae565b5b602002602001015181526020019081526020015f205f8154809291906106de90613308565b919050555080806106ee90613308565b91505061065b565b5061070384848484610dcc565b50505050565b610711610fec565b73ffffffffffffffffffffffffffffffffffffffff168573ffffffffffffffffffffffffffffffffffffffff161480610757575061075685610751610fec565b610a84565b5b610796576040517f08c379a000000000000000000000000000000000000000000000000000000000815260040161078d906133bf565b60405180910390fd5b6107a38585858585610ff3565b5050505050565b6107b2610d3b565b6107ba611301565b565b60608151835114610802576040517f08c379a00000000000000000000000000000000000000000000000000000000081526004016107f99061344d565b60405180910390fd5b5f835167ffffffffffffffff81111561081e5761081d6127bd565b5b60405190808252806020026020018201604052801561084c5781602001602082028036833780820191505090505b5090505f5b84518110156108c8576108988582815181106108705761086f6132ae565b5b602002602001015185838151811061088b5761088a6132ae565b5b6020026020010151610407565b8282815181106108ab576108aa6132ae565b5b602002602001018181525050806108c190613308565b9050610851565b508091505092915050565b5f806108de83611363565b119050919050565b5f600360149054906101000a900460ff16905090565b610904610fec565b73ffffffffffffffffffffffffffffffffffffffff168373ffffffffffffffffffffffffffffffffffffffff16148061094a575061094983610944610fec565b610a84565b5b610989576040517f08c379a0000000000000000000000000000000000000000000000000000000008152600401610980906133bf565b60405180910390fd5b61099483838361137d565b505050565b6109a1610d3b565b6109aa5f611638565b565b6109b4610d3b565b6109bd836108d3565b6109d95760065f8154809291906109d390613308565b91905055505b60055f8481526020019081526020015f205f8154809291906109fa90613308565b9190505550610a0b848484846116fb565b50505050565b610a19610d3b565b610a2161189e565b565b5f60035f9054906101000a900473ffffffffffffffffffffffffffffffffffffffff16905090565b610a5d610a56610fec565b8383611901565b5050565b5f60055f8381526020019081526020015f20549050919050565b5f600654905090565b5f60015f8473ffffffffffffffffffffffffffffffffffffffff1673ffffffffffffffffffffffffffffffffffffffff1681526020019081526020015f205f8373ffffffffffffffffffffffffffffffffffffffff1673ffffffffffffffffffffffffffffffffffffffff1681526020019081526020015f205f9054906101000a900460ff16905092915050565b610b1a610fec565b73ffffffffffffffffffffffffffffffffffffffff168573ffffffffffffffffffffffffffffffffffffffff161480610b605750610b5f85610b5a610fec565b610a84565b5b610b9f576040517f08c379a0000000000000000000000000000000000000000000000000000000008152600401610b96906133bf565b60405180910390fd5b610bac8585858585611a68565b5050505050565b610bbb610d3b565b5f73ffffffffffffffffffffffffffffffffffffffff168173ffffffffffffffffffffffffffffffffffffffff1603610c29576040517f08c379a0000000000000000000000000000000000000000000000000000000008152600401610c20906134db565b60405180910390fd5b610c3281611638565b50565b610c3d610fec565b73ffffffffffffffffffffffffffffffffffffffff168373ffffffffffffffffffffffffffffffffffffffff161480610c835750610c8283610c7d610fec565b610a84565b5b610cc2576040517f08c379a0000000000000000000000000000000000000000000000000000000008152600401610cb9906133bf565b60405180910390fd5b610ccd838383611cf1565b505050565b5f7f01ffc9a7000000000000000000000000000000000000000000000000000000007bffffffffffffffffffffffffffffffffffffffffffffffffffffffff1916827bffffffffffffffffffffffffffffffffffffffffffffffffffffffff1916149050919050565b610d43610fec565b73ffffffffffffffffffffffffffffffffffffffff16610d61610a23565b73ffffffffffffffffffffffffffffffffffffffff1614610db7576040517f08c379a0000000000000000000000000000000000000000000000000000000008152600401610dae90613543565b60405180910390fd5b565b8060029081610dc891906136fe565b5050565b5f73ffffffffffffffffffffffffffffffffffffffff168473ffffffffffffffffffffffffffffffffffffffff1603610e3a576040517f08c379a0000000000000000000000000000000000000000000000000000000008152600401610e319061383d565b60405180910390fd5b8151835114610e7e576040517f08c379a0000000000000000000000000000000000000000000000000000000008152600401610e75906138cb565b60405180910390fd5b5f610e87610fec565b9050610e97815f87878787611f25565b5f5b8451811015610f4a57838181518110610eb557610eb46132ae565b5b60200260200101515f80878481518110610ed257610ed16132ae565b5b602002602001015181526020019081526020015f205f8873ffffffffffffffffffffffffffffffffffffffff1673ffffffffffffffffffffffffffffffffffffffff1681526020019081526020015f205f828254610f3091906138e9565b925050819055508080610f4290613308565b915050610e99565b508473ffffffffffffffffffffffffffffffffffffffff165f73ffffffffffffffffffffffffffffffffffffffff168273ffffffffffffffffffffffffffffffffffffffff167f4a39dc06d4c0dbc64b70af90fd698a233a518aa5d07e595d983b8c0526c8f7fb8787604051610fc192919061391c565b60405180910390a4610fd7815f87878787611f43565b610fe5815f87878787611f4b565b5050505050565b5f33905090565b8151835114611037576040517f08c379a000000000000000000000000000000000000000000000000000000000815260040161102e906138cb565b60405180910390fd5b5f73ffffffffffffffffffffffffffffffffffffffff168473ffffffffffffffffffffffffffffffffffffffff16036110a5576040517f08c379a000000000000000000000000000000000000000000000000000000000815260040161109c906139c1565b60405180910390fd5b5f6110ae610fec565b90506110be818787878787611f25565b5f5b845181101561125e575f8582815181106110dd576110dc6132ae565b5b602002602001015190505f8583815181106110fb576110fa6132ae565b5b602002602001015190505f805f8481526020019081526020015f205f8b73ffffffffffffffffffffffffffffffffffffffff1673ffffffffffffffffffffffffffffffffffffffff1681526020019081526020015f2054905081811015611197576040517f08c379a000000000000000000000000000000000000000000000000000000000815260040161118e90613a4f565b60405180910390fd5b8181035f808581526020019081526020015f205f8c73ffffffffffffffffffffffffffffffffffffffff1673ffffffffffffffffffffffffffffffffffffffff1681526020019081526020015f2081905550815f808581526020019081526020015f205f8b73ffffffffffffffffffffffffffffffffffffffff1673ffffffffffffffffffffffffffffffffffffffff1681526020019081526020015f205f82825461124391906138e9565b925050819055505050508061125790613308565b90506110c0565b508473ffffffffffffffffffffffffffffffffffffffff168673ffffffffffffffffffffffffffffffffffffffff168273ffffffffffffffffffffffffffffffffffffffff167f4a39dc06d4c0dbc64b70af90fd698a233a518aa5d07e595d983b8c0526c8f7fb87876040516112d592919061391c565b60405180910390a46112eb818787878787611f43565b6112f9818787878787611f4b565b505050505050565b611309612121565b5f600360146101000a81548160ff0219169083151502179055507f5db9ee0a495bf2e6ff9c91a7834c1ba4fdd244a5e8aa4e537bd38aeae4b073aa61134c610fec565b6040516113599190612ff6565b60405180910390a1565b5f60045f8381526020019081526020015f20549050919050565b5f73ffffffffffffffffffffffffffffffffffffffff168373ffffffffffffffffffffffffffffffffffffffff16036113eb576040517f08c379a00000000000000000000000000000000000000000000000000000000081526004016113e290613add565b60405180910390fd5b805182511461142f576040517f08c379a0000000000000000000000000000000000000000000000000000000008152600401611426906138cb565b60405180910390fd5b5f611438610fec565b905061145681855f868660405180602001604052805f815250611f25565b5f5b8351811015611597575f848281518110611475576114746132ae565b5b602002602001015190505f848381518110611493576114926132ae565b5b602002602001015190505f805f8481526020019081526020015f205f8973ffffffffffffffffffffffffffffffffffffffff1673ffffffffffffffffffffffffffffffffffffffff1681526020019081526020015f205490508181101561152f576040517f08c379a000000000000000000000000000000000000000000000000000000000815260040161152690613b6b565b60405180910390fd5b8181035f808581526020019081526020015f205f8a73ffffffffffffffffffffffffffffffffffffffff1673ffffffffffffffffffffffffffffffffffffffff1681526020019081526020015f2081905550505050808061158f90613308565b915050611458565b505f73ffffffffffffffffffffffffffffffffffffffff168473ffffffffffffffffffffffffffffffffffffffff168273ffffffffffffffffffffffffffffffffffffffff167f4a39dc06d4c0dbc64b70af90fd698a233a518aa5d07e595d983b8c0526c8f7fb868660405161160e92919061391c565b60405180910390a461163281855f868660405180602001604052805f815250611f43565b50505050565b5f60035f9054906101000a900473ffffffffffffffffffffffffffffffffffffffff1690508160035f6101000a81548173ffffffffffffffffffffffffffffffffffffffff021916908373ffffffffffffffffffffffffffffffffffffffff1602179055508173ffffffffffffffffffffffffffffffffffffffff168173ffffffffffffffffffffffffffffffffffffffff167f8be0079c531659141344cd1fd0a4f28419497f9722a3daafe3b4186f6b6457e060405160405180910390a35050565b5f73ffffffffffffffffffffffffffffffffffffffff168473ffffffffffffffffffffffffffffffffffffffff1603611769576040517f08c379a00000000000000000000000000000000000000000000000000000000081526004016117609061383d565b60405180910390fd5b5f611772610fec565b90505f61177e8561216a565b90505f61178a8561216a565b905061179a835f89858589611f25565b845f808881526020019081526020015f205f8973ffffffffffffffffffffffffffffffffffffffff1673ffffffffffffffffffffffffffffffffffffffff1681526020019081526020015f205f8282546117f491906138e9565b925050819055508673ffffffffffffffffffffffffffffffffffffffff165f73ffffffffffffffffffffffffffffffffffffffff168473ffffffffffffffffffffffffffffffffffffffff167fc3d58168c5ae7397731d063d5bbf3d657854427343f4c083240f7aacaa2d0f628989604051611871929190613b89565b60405180910390a4611887835f89858589611f43565b611895835f898989896121e2565b50505050505050565b6118a66123b8565b6001600360146101000a81548160ff0219169083151502179055507f62e78cea01bee320cd4e420270b5ea74000d11b0c9f74754ebdbfc544b05a2586118ea610fec565b6040516118f79190612ff6565b60405180910390a1565b8173ffffffffffffffffffffffffffffffffffffffff168373ffffffffffffffffffffffffffffffffffffffff160361196f576040517f08c379a000000000000000000000000000000000000000000000000000000000815260040161196690613c20565b60405180910390fd5b8060015f8573ffffffffffffffffffffffffffffffffffffffff1673ffffffffffffffffffffffffffffffffffffffff1681526020019081526020015f205f8473ffffffffffffffffffffffffffffffffffffffff1673ffffffffffffffffffffffffffffffffffffffff1681526020019081526020015f205f6101000a81548160ff0219169083151502179055508173ffffffffffffffffffffffffffffffffffffffff168373ffffffffffffffffffffffffffffffffffffffff167f17307eab39ab6107e8899845ad3d59bd9653f200f220920489ca2b5937696c3183604051611a5b919061278c565b60405180910390a3505050565b5f73ffffffffffffffffffffffffffffffffffffffff168473ffffffffffffffffffffffffffffffffffffffff1603611ad6576040517f08c379a0000000000000000000000000000000000000000000000000000000008152600401611acd906139c1565b60405180910390fd5b5f611adf610fec565b90505f611aeb8561216a565b90505f611af78561216a565b9050611b07838989858589611f25565b5f805f8881526020019081526020015f205f8a73ffffffffffffffffffffffffffffffffffffffff1673ffffffffffffffffffffffffffffffffffffffff1681526020019081526020015f2054905085811015611b99576040517f08c379a0000000000000000000000000000000000000000000000000000000008152600401611b9090613a4f565b60405180910390fd5b8581035f808981526020019081526020015f205f8b73ffffffffffffffffffffffffffffffffffffffff1673ffffffffffffffffffffffffffffffffffffffff1681526020019081526020015f2081905550855f808981526020019081526020015f205f8a73ffffffffffffffffffffffffffffffffffffffff1673ffffffffffffffffffffffffffffffffffffffff1681526020019081526020015f205f828254611c4591906138e9565b925050819055508773ffffffffffffffffffffffffffffffffffffffff168973ffffffffffffffffffffffffffffffffffffffff168573ffffffffffffffffffffffffffffffffffffffff167fc3d58168c5ae7397731d063d5bbf3d657854427343f4c083240f7aacaa2d0f628a8a604051611cc2929190613b89565b60405180910390a4611cd8848a8a86868a611f43565b611ce6848a8a8a8a8a6121e2565b505050505050505050565b5f73ffffffffffffffffffffffffffffffffffffffff168373ffffffffffffffffffffffffffffffffffffffff1603611d5f576040517f08c379a0000000000000000000000000000000000000000000000000000000008152600401611d5690613add565b60405180910390fd5b5f611d68610fec565b90505f611d748461216a565b90505f611d808461216a565b9050611d9e83875f858560405180602001604052805f815250611f25565b5f805f8781526020019081526020015f205f8873ffffffffffffffffffffffffffffffffffffffff1673ffffffffffffffffffffffffffffffffffffffff1681526020019081526020015f2054905084811015611e30576040517f08c379a0000000000000000000000000000000000000000000000000000000008152600401611e2790613b6b565b60405180910390fd5b8481035f808881526020019081526020015f205f8973ffffffffffffffffffffffffffffffffffffffff1673ffffffffffffffffffffffffffffffffffffffff1681526020019081526020015f20819055505f73ffffffffffffffffffffffffffffffffffffffff168773ffffffffffffffffffffffffffffffffffffffff168573ffffffffffffffffffffffffffffffffffffffff167fc3d58168c5ae7397731d063d5bbf3d657854427343f4c083240f7aacaa2d0f628989604051611ef8929190613b89565b60405180910390a4611f1c84885f868660405180602001604052805f815250611f43565b50505050505050565b611f2d6123b8565b611f3b868686868686612402565b505050505050565b505050505050565b611f6a8473ffffffffffffffffffffffffffffffffffffffff166125c4565b15612119578373ffffffffffffffffffffffffffffffffffffffff1663bc197c8187878686866040518663ffffffff1660e01b8152600401611fb0959493929190613c90565b6020604051808303815f875af1925050508015611feb57506040513d601f19601f82011682018060405250810190611fe89190613d0a565b60015b61209057611ff7613d41565b806308c379a003612053575061200b613d60565b806120165750612055565b806040517f08c379a000000000000000000000000000000000000000000000000000000000815260040161204a91906129cd565b60405180910390fd5b505b6040517f08c379a000000000000000000000000000000000000000000000000000000000815260040161208790613e5f565b60405180910390fd5b63bc197c8160e01b7bffffffffffffffffffffffffffffffffffffffffffffffffffffffff1916817bffffffffffffffffffffffffffffffffffffffffffffffffffffffff191614612117576040517f08c379a000000000000000000000000000000000000000000000000000000000815260040161210e90613eed565b60405180910390fd5b505b505050505050565b6121296108e6565b612168576040517f08c379a000000000000000000000000000000000000000000000000000000000815260040161215f90613f55565b60405180910390fd5b565b60605f600167ffffffffffffffff811115612188576121876127bd565b5b6040519080825280602002602001820160405280156121b65781602001602082028036833780820191505090505b50905082815f815181106121cd576121cc6132ae565b5b60200260200101818152505080915050919050565b6122018473ffffffffffffffffffffffffffffffffffffffff166125c4565b156123b0578373ffffffffffffffffffffffffffffffffffffffff1663f23a6e6187878686866040518663ffffffff1660e01b8152600401612247959493929190613f73565b6020604051808303815f875af192505050801561228257506040513d601f19601f8201168201806040525081019061227f9190613d0a565b60015b6123275761228e613d41565b806308c379a0036122ea57506122a2613d60565b806122ad57506122ec565b806040517f08c379a00000000000000000000000000000000000000000000000000000000081526004016122e191906129cd565b60405180910390fd5b505b6040517f08c379a000000000000000000000000000000000000000000000000000000000815260040161231e90613e5f565b60405180910390fd5b63f23a6e6160e01b7bffffffffffffffffffffffffffffffffffffffffffffffffffffffff1916817bffffffffffffffffffffffffffffffffffffffffffffffffffffffff1916146123ae576040517f08c379a00000000000000000000000000000000000000000000000000000000081526004016123a590613eed565b60405180910390fd5b505b505050505050565b6123c06108e6565b15612400576040517f08c379a00000000000000000000000000000000000000000000000000000000081526004016123f790614015565b60405180910390fd5b565b6124108686868686866125e6565b5f73ffffffffffffffffffffffffffffffffffffffff168573ffffffffffffffffffffffffffffffffffffffff16036124bc575f5b83518110156124ba57828181518110612461576124606132ae565b5b602002602001015160045f86848151811061247f5761247e6132ae565b5b602002602001015181526020019081526020015f205f8282546124a291906138e9565b92505081905550806124b390613308565b9050612445565b505b5f73ffffffffffffffffffffffffffffffffffffffff168473ffffffffffffffffffffffffffffffffffffffff16036125bc575f5b83518110156125ba575f84828151811061250e5761250d6132ae565b5b602002602001015190505f84838151811061252c5761252b6132ae565b5b602002602001015190505f60045f8481526020019081526020015f205490508181101561258e576040517f08c379a0000000000000000000000000000000000000000000000000000000008152600401612585906140a3565b60405180910390fd5b81810360045f8581526020019081526020015f2081905550505050806125b390613308565b90506124f1565b505b505050505050565b5f808273ffffffffffffffffffffffffffffffffffffffff163b119050919050565b505050505050565b5f604051905090565b5f80fd5b5f80fd5b5f73ffffffffffffffffffffffffffffffffffffffff82169050919050565b5f612628826125ff565b9050919050565b6126388161261e565b8114612642575f80fd5b50565b5f813590506126538161262f565b92915050565b5f819050919050565b61266b81612659565b8114612675575f80fd5b50565b5f8135905061268681612662565b92915050565b5f80604083850312156126a2576126a16125f7565b5b5f6126af85828601612645565b92505060206126c085828601612678565b9150509250929050565b6126d381612659565b82525050565b5f6020820190506126ec5f8301846126ca565b92915050565b5f7fffffffff0000000000000000000000000000000000000000000000000000000082169050919050565b612726816126f2565b8114612730575f80fd5b50565b5f813590506127418161271d565b92915050565b5f6020828403121561275c5761275b6125f7565b5b5f61276984828501612733565b91505092915050565b5f8115159050919050565b61278681612772565b82525050565b5f60208201905061279f5f83018461277d565b92915050565b5f80fd5b5f80fd5b5f601f19601f8301169050919050565b7f4e487b71000000000000000000000000000000000000000000000000000000005f52604160045260245ffd5b6127f3826127ad565b810181811067ffffffffffffffff82111715612812576128116127bd565b5b80604052505050565b5f6128246125ee565b905061283082826127ea565b919050565b5f67ffffffffffffffff82111561284f5761284e6127bd565b5b612858826127ad565b9050602081019050919050565b828183375f83830152505050565b5f61288561288084612835565b61281b565b9050828152602081018484840111156128a1576128a06127a9565b5b6128ac848285612865565b509392505050565b5f82601f8301126128c8576128c76127a5565b5b81356128d8848260208601612873565b91505092915050565b5f602082840312156128f6576128f56125f7565b5b5f82013567ffffffffffffffff811115612913576129126125fb565b5b61291f848285016128b4565b91505092915050565b5f6020828403121561293d5761293c6125f7565b5b5f61294a84828501612678565b91505092915050565b5f81519050919050565b5f82825260208201905092915050565b5f5b8381101561298a57808201518184015260208101905061296f565b5f8484015250505050565b5f61299f82612953565b6129a9818561295d565b93506129b981856020860161296d565b6129c2816127ad565b840191505092915050565b5f6020820190508181035f8301526129e58184612995565b905092915050565b5f67ffffffffffffffff821115612a0757612a066127bd565b5b602082029050602081019050919050565b5f80fd5b5f612a2e612a29846129ed565b61281b565b90508083825260208201905060208402830185811115612a5157612a50612a18565b5b835b81811015612a7a5780612a668882612678565b845260208401935050602081019050612a53565b5050509392505050565b5f82601f830112612a9857612a976127a5565b5b8135612aa8848260208601612a1c565b91505092915050565b5f67ffffffffffffffff821115612acb57612aca6127bd565b5b612ad4826127ad565b9050602081019050919050565b5f612af3612aee84612ab1565b61281b565b905082815260208101848484011115612b0f57612b0e6127a9565b5b612b1a848285612865565b509392505050565b5f82601f830112612b3657612b356127a5565b5b8135612b46848260208601612ae1565b91505092915050565b5f805f8060808587031215612b6757612b666125f7565b5b5f612b7487828801612645565b945050602085013567ffffffffffffffff811115612b9557612b946125fb565b5b612ba187828801612a84565b935050604085013567ffffffffffffffff811115612bc257612bc16125fb565b5b612bce87828801612a84565b925050606085013567ffffffffffffffff811115612bef57612bee6125fb565b5b612bfb87828801612b22565b91505092959194509250565b5f805f805f60a08688031215612c2057612c1f6125f7565b5b5f612c2d88828901612645565b9550506020612c3e88828901612645565b945050604086013567ffffffffffffffff811115612c5f57612c5e6125fb565b5b612c6b88828901612a84565b935050606086013567ffffffffffffffff811115612c8c57612c8b6125fb565b5b612c9888828901612a84565b925050608086013567ffffffffffffffff811115612cb957612cb86125fb565b5b612cc588828901612b22565b9150509295509295909350565b5f67ffffffffffffffff821115612cec57612ceb6127bd565b5b602082029050602081019050919050565b5f612d0f612d0a84612cd2565b61281b565b90508083825260208201905060208402830185811115612d3257612d31612a18565b5b835b81811015612d5b5780612d478882612645565b845260208401935050602081019050612d34565b5050509392505050565b5f82601f830112612d7957612d786127a5565b5b8135612d89848260208601612cfd565b91505092915050565b5f8060408385031215612da857612da76125f7565b5b5f83013567ffffffffffffffff811115612dc557612dc46125fb565b5b612dd185828601612d65565b925050602083013567ffffffffffffffff811115612df257612df16125fb565b5b612dfe85828601612a84565b9150509250929050565b5f81519050919050565b5f82825260208201905092915050565b5f819050602082019050919050565b612e3a81612659565b82525050565b5f612e4b8383612e31565b60208301905092915050565b5f602082019050919050565b5f612e6d82612e08565b612e778185612e12565b9350612e8283612e22565b805f5b83811015612eb2578151612e998882612e40565b9750612ea483612e57565b925050600181019050612e85565b5085935050505092915050565b5f6020820190508181035f830152612ed78184612e63565b905092915050565b5f805f60608486031215612ef657612ef56125f7565b5b5f612f0386828701612645565b935050602084013567ffffffffffffffff811115612f2457612f236125fb565b5b612f3086828701612a84565b925050604084013567ffffffffffffffff811115612f5157612f506125fb565b5b612f5d86828701612a84565b9150509250925092565b5f805f8060808587031215612f7f57612f7e6125f7565b5b5f612f8c87828801612645565b9450506020612f9d87828801612678565b9350506040612fae87828801612678565b925050606085013567ffffffffffffffff811115612fcf57612fce6125fb565b5b612fdb87828801612b22565b91505092959194509250565b612ff08161261e565b82525050565b5f6020820190506130095f830184612fe7565b92915050565b61301881612772565b8114613022575f80fd5b50565b5f813590506130338161300f565b92915050565b5f806040838503121561304f5761304e6125f7565b5b5f61305c85828601612645565b925050602061306d85828601613025565b9150509250929050565b5f806040838503121561308d5761308c6125f7565b5b5f61309a85828601612645565b92505060206130ab85828601612645565b9150509250929050565b5f805f805f60a086880312156130ce576130cd6125f7565b5b5f6130db88828901612645565b95505060206130ec88828901612645565b94505060406130fd88828901612678565b935050606061310e88828901612678565b925050608086013567ffffffffffffffff81111561312f5761312e6125fb565b5b61313b88828901612b22565b9150509295509295909350565b5f6020828403121561315d5761315c6125f7565b5b5f61316a84828501612645565b91505092915050565b5f805f6060848603121561318a576131896125f7565b5b5f61319786828701612645565b93505060206131a886828701612678565b92505060406131b986828701612678565b9150509250925092565b7f455243313135353a2061646472657373207a65726f206973206e6f74206120765f8201527f616c6964206f776e657200000000000000000000000000000000000000000000602082015250565b5f61321d602a8361295d565b9150613228826131c3565b604082019050919050565b5f6020820190508181035f83015261324a81613211565b9050919050565b7f4e487b71000000000000000000000000000000000000000000000000000000005f52602260045260245ffd5b5f600282049050600182168061329557607f821691505b6020821081036132a8576132a7613251565b5b50919050565b7f4e487b71000000000000000000000000000000000000000000000000000000005f52603260045260245ffd5b7f4e487b71000000000000000000000000000000000000000000000000000000005f52601160045260245ffd5b5f61331282612659565b91507fffffffffffffffffffffffffffffffffffffffffffffffffffffffffffffffff8203613344576133436132db565b5b600182019050919050565b7f455243313135353a2063616c6c6572206973206e6f7420746f6b656e206f776e5f8201527f6572206f7220617070726f766564000000000000000000000000000000000000602082015250565b5f6133a9602e8361295d565b91506133b48261334f565b604082019050919050565b5f6020820190508181035f8301526133d68161339d565b9050919050565b7f455243313135353a206163636f756e747320616e6420696473206c656e6774685f8201527f206d69736d617463680000000000000000000000000000000000000000000000602082015250565b5f61343760298361295d565b9150613442826133dd565b604082019050919050565b5f6020820190508181035f8301526134648161342b565b9050919050565b7f4f776e61626c653a206e6577206f776e657220697320746865207a65726f20615f8201527f6464726573730000000000000000000000000000000000000000000000000000602082015250565b5f6134c560268361295d565b91506134d08261346b565b604082019050919050565b5f6020820190508181035f8301526134f2816134b9565b9050919050565b7f4f776e61626c653a2063616c6c6572206973206e6f7420746865206f776e65725f82015250565b5f61352d60208361295d565b9150613538826134f9565b602082019050919050565b5f6020820190508181035f83015261355a81613521565b9050919050565b5f819050815f5260205f209050919050565b5f6020601f8301049050919050565b5f82821b905092915050565b5f600883026135bd7fffffffffffffffffffffffffffffffffffffffffffffffffffffffffffffffff82613582565b6135c78683613582565b95508019841693508086168417925050509392505050565b5f819050919050565b5f6136026135fd6135f884612659565b6135df565b612659565b9050919050565b5f819050919050565b61361b836135e8565b61362f61362782613609565b84845461358e565b825550505050565b5f90565b613643613637565b61364e818484613612565b505050565b5b81811015613671576136665f8261363b565b600181019050613654565b5050565b601f8211156136b65761368781613561565b61369084613573565b8101602085101561369f578190505b6136b36136ab85613573565b830182613653565b50505b505050565b5f82821c905092915050565b5f6136d65f19846008026136bb565b1980831691505092915050565b5f6136ee83836136c7565b9150826002028217905092915050565b61370782612953565b67ffffffffffffffff8111156137205761371f6127bd565b5b61372a825461327e565b613735828285613675565b5f60209050601f831160018114613766575f8415613754578287015190505b61375e85826136e3565b8655506137c5565b601f19841661377486613561565b5f5b8281101561379b57848901518255600182019150602085019450602081019050613776565b868310156137b857848901516137b4601f8916826136c7565b8355505b6001600288020188555050505b505050505050565b7f455243313135353a206d696e7420746f20746865207a65726f206164647265735f8201527f7300000000000000000000000000000000000000000000000000000000000000602082015250565b5f61382760218361295d565b9150613832826137cd565b604082019050919050565b5f6020820190508181035f8301526138548161381b565b9050919050565b7f455243313135353a2069647320616e6420616d6f756e7473206c656e677468205f8201527f6d69736d61746368000000000000000000000000000000000000000000000000602082015250565b5f6138b560288361295d565b91506138c08261385b565b604082019050919050565b5f6020820190508181035f8301526138e2816138a9565b9050919050565b5f6138f382612659565b91506138fe83612659565b9250828201905080821115613916576139156132db565b5b92915050565b5f6040820190508181035f8301526139348185612e63565b905081810360208301526139488184612e63565b90509392505050565b7f455243313135353a207472616e7366657220746f20746865207a65726f2061645f8201527f6472657373000000000000000000000000000000000000000000000000000000602082015250565b5f6139ab60258361295d565b91506139b682613951565b604082019050919050565b5f6020820190508181035f8301526139d88161399f565b9050919050565b7f455243313135353a20696e73756666696369656e742062616c616e636520666f5f8201527f72207472616e7366657200000000000000000000000000000000000000000000602082015250565b5f613a39602a8361295d565b9150613a44826139df565b604082019050919050565b5f6020820190508181035f830152613a6681613a2d565b9050919050565b7f455243313135353a206275726e2066726f6d20746865207a65726f20616464725f8201527f6573730000000000000000000000000000000000000000000000000000000000602082015250565b5f613ac760238361295d565b9150613ad282613a6d565b604082019050919050565b5f6020820190508181035f830152613af481613abb565b9050919050565b7f455243313135353a206275726e20616d6f756e7420657863656564732062616c5f8201527f616e636500000000000000000000000000000000000000000000000000000000602082015250565b5f613b5560248361295d565b9150613b6082613afb565b604082019050919050565b5f6020820190508181035f830152613b8281613b49565b9050919050565b5f604082019050613b9c5f8301856126ca565b613ba960208301846126ca565b9392505050565b7f455243313135353a2073657474696e6720617070726f76616c207374617475735f8201527f20666f722073656c660000000000000000000000000000000000000000000000602082015250565b5f613c0a60298361295d565b9150613c1582613bb0565b604082019050919050565b5f6020820190508181035f830152613c3781613bfe565b9050919050565b5f81519050919050565b5f82825260208201905092915050565b5f613c6282613c3e565b613c6c8185613c48565b9350613c7c81856020860161296d565b613c85816127ad565b840191505092915050565b5f60a082019050613ca35f830188612fe7565b613cb06020830187612fe7565b8181036040830152613cc28186612e63565b90508181036060830152613cd68185612e63565b90508181036080830152613cea8184613c58565b90509695505050505050565b5f81519050613d048161271d565b92915050565b5f60208284031215613d1f57613d1e6125f7565b5b5f613d2c84828501613cf6565b91505092915050565b5f8160e01c9050919050565b5f60033d1115613d5d5760045f803e613d5a5f51613d35565b90505b90565b5f60443d10613dec57613d716125ee565b60043d036004823e80513d602482011167ffffffffffffffff82111715613d99575050613dec565b808201805167ffffffffffffffff811115613db75750505050613dec565b80602083010160043d038501811115613dd4575050505050613dec565b613de3826020018501866127ea565b82955050505050505b90565b7f455243313135353a207472616e7366657220746f206e6f6e2d455243313135355f8201527f526563656976657220696d706c656d656e746572000000000000000000000000602082015250565b5f613e4960348361295d565b9150613e5482613def565b604082019050919050565b5f6020820190508181035f830152613e7681613e3d565b9050919050565b7f455243313135353a204552433131353552656365697665722072656a656374655f8201527f6420746f6b656e73000000000000000000000000000000000000000000000000602082015250565b5f613ed760288361295d565b9150613ee282613e7d565b604082019050919050565b5f6020820190508181035f830152613f0481613ecb565b9050919050565b7f5061757361626c653a206e6f74207061757365640000000000000000000000005f82015250565b5f613f3f60148361295d565b9150613f4a82613f0b565b602082019050919050565b5f6020820190508181035f830152613f6c81613f33565b9050919050565b5f60a082019050613f865f830188612fe7565b613f936020830187612fe7565b613fa060408301866126ca565b613fad60608301856126ca565b8181036080830152613fbf8184613c58565b90509695505050505050565b7f5061757361626c653a20706175736564000000000000000000000000000000005f82015250565b5f613fff60108361295d565b915061400a82613fcb565b602082019050919050565b5f6020820190508181035f83015261402c81613ff3565b9050919050565b7f455243313135353a206275726e20616d6f756e74206578636565647320746f745f8201527f616c537570706c79000000000000000000000000000000000000000000000000602082015250565b5f61408d60288361295d565b915061409882614033565b604082019050919050565b5f6020820190508181035f8301526140ba81614081565b905091905056fea26469706673582212202d06b54ed26d041622093a4588fb7703519a1265467a2e18b37d2f2d56f79dac64736f6c63430008140033",
  "immutableReferences": {},
  "source": "// SPDX-License-Identifier: MIT\npragma solidity ^0.8.9;\n\nimport \"@openzeppelin/contracts/token/ERC1155/ERC1155.sol\";\nimport \"@openzeppelin/contracts/access/Ownable.sol\";\nimport \"@openzeppelin/contracts/security/Pausable.sol\";\nimport \"@openzeppelin/contracts/token/ERC1155/extensions/ERC1155Burnable.sol\";\nimport \"@openzeppelin/contracts/token/ERC1155/extensions/ERC1155Supply.sol\";\n\ncontract POM is ERC1155, Ownable, Pausable, ERC1155Burnable, ERC1155Supply {\n    mapping(uint256 => uint256) private _totalSupply;\n    uint256 private _tokenCounter;\n\n    constructor() ERC1155(\"\") {\n        _tokenCounter= 0;\n        _uri = \"\";\n    }\n\n    \n\n    // Used as the URI for all token types by relying on ID substitution, e.g. https://token-cdn-domain/{id}.json\n    string private _uri;\n\n    function setURI(string memory newuri) public onlyOwner {\n        _setURI(newuri);\n    }\n\n    function pause() public onlyOwner {\n        _pause();\n    }\n\n    function unpause() public onlyOwner {\n        _unpause();\n    }\n\n    function tokenCounter() \n    public \n    view \n    returns (uint256) \n    {\n        return _tokenCounter;\n    }\n    \n    function totalSupply(uint256 id) \n    public \n    view \n    override\n    returns (uint256) \n    {\n        return _totalSupply[id];\n    }\n\n    function mint(address account, uint256 id, uint256 amount, bytes memory data)\n        public\n        onlyOwner\n    {\n        if (!exists(id)) {\n            _tokenCounter++;\n         }\n        _totalSupply[id]++;\n        _mint(account, id, amount, data);\n    }\n\n    function mintBatch(address to, uint256[] memory ids, uint256[] memory amounts, bytes memory data)\n        public\n        onlyOwner\n    {\n        for (uint j = 0; j < ids.length; j++) {\n            if (!exists(ids[j])) {\n            _tokenCounter++;\n         }\n        _totalSupply[ids[j]]++;\n        }\n        _mintBatch(to, ids, amounts, data);\n    }\n\n    function _beforeTokenTransfer(address operator, address from, address to, uint256[] memory ids, uint256[] memory amounts, bytes memory data)\n        internal\n        whenNotPaused\n        override(ERC1155, ERC1155Supply)\n    {\n        super._beforeTokenTransfer(operator, from, to, ids, amounts, data);\n    }\n}",
  "sourcePath": "D:\\Career\\Web3\\ETHSEOUL2023\\contracts\\POM.sol",
  "compiler": {
    "name": "solc",
    "version": "0.8.20+commit.a1b79de6.Emscripten.clang"
  },
  "schemaVersion": "3.4.14",
  "updatedAt": "2023-06-03T13:55:07.799Z",
  "networkType": "ethereum",
  "devdoc": {
    "events": {
      "ApprovalForAll(address,address,bool)": {
        "details": "Emitted when `account` grants or revokes permission to `operator` to transfer their tokens, according to `approved`."
      },
      "Paused(address)": {
        "details": "Emitted when the pause is triggered by `account`."
      },
      "TransferBatch(address,address,address,uint256[],uint256[])": {
        "details": "Equivalent to multiple {TransferSingle} events, where `operator`, `from` and `to` are the same for all transfers."
      },
      "TransferSingle(address,address,address,uint256,uint256)": {
        "details": "Emitted when `value` tokens of token type `id` are transferred from `from` to `to` by `operator`."
      },
      "URI(string,uint256)": {
        "details": "Emitted when the URI for token type `id` changes to `value`, if it is a non-programmatic URI. If an {URI} event was emitted for `id`, the standard https://eips.ethereum.org/EIPS/eip-1155#metadata-extensions[guarantees] that `value` will equal the value returned by {IERC1155MetadataURI-uri}."
      },
      "Unpaused(address)": {
        "details": "Emitted when the pause is lifted by `account`."
      }
    },
    "kind": "dev",
    "methods": {
      "balanceOf(address,uint256)": {
        "details": "See {IERC1155-balanceOf}. Requirements: - `account` cannot be the zero address."
      },
      "balanceOfBatch(address[],uint256[])": {
        "details": "See {IERC1155-balanceOfBatch}. Requirements: - `accounts` and `ids` must have the same length."
      },
      "exists(uint256)": {
        "details": "Indicates whether any token exist with a given id, or not."
      },
      "isApprovedForAll(address,address)": {
        "details": "See {IERC1155-isApprovedForAll}."
      },
      "owner()": {
        "details": "Returns the address of the current owner."
      },
      "paused()": {
        "details": "Returns true if the contract is paused, and false otherwise."
      },
      "renounceOwnership()": {
        "details": "Leaves the contract without owner. It will not be possible to call `onlyOwner` functions. Can only be called by the current owner. NOTE: Renouncing ownership will leave the contract without an owner, thereby disabling any functionality that is only available to the owner."
      },
      "safeBatchTransferFrom(address,address,uint256[],uint256[],bytes)": {
        "details": "See {IERC1155-safeBatchTransferFrom}."
      },
      "safeTransferFrom(address,address,uint256,uint256,bytes)": {
        "details": "See {IERC1155-safeTransferFrom}."
      },
      "setApprovalForAll(address,bool)": {
        "details": "See {IERC1155-setApprovalForAll}."
      },
      "supportsInterface(bytes4)": {
        "details": "See {IERC165-supportsInterface}."
      },
      "totalSupply(uint256)": {
        "details": "Total amount of tokens in with a given id."
      },
      "transferOwnership(address)": {
        "details": "Transfers ownership of the contract to a new account (`newOwner`). Can only be called by the current owner."
      },
      "uri(uint256)": {
        "details": "See {IERC1155MetadataURI-uri}. This implementation returns the same URI for *all* token types. It relies on the token type ID substitution mechanism https://eips.ethereum.org/EIPS/eip-1155#metadata[defined in the EIP]. Clients calling this function must replace the `\\{id\\}` substring with the actual token type ID."
      }
    },
    "version": 1
  },
  "userdoc": {
    "kind": "user",
    "methods": {},
    "version": 1
  }
}