{
  "contractName": "POM",
  "abi": [
    {
      "inputs": [],
      "stateMutability": "nonpayable",
      "type": "constructor"
    },
    {
      "anonymous": false,
      "inputs": [
        {
          "indexed": true,
          "internalType": "address",
          "name": "account",
          "type": "address"
        },
        {
          "indexed": true,
          "internalType": "address",
          "name": "operator",
          "type": "address"
        },
        {
          "indexed": false,
          "internalType": "bool",
          "name": "approved",
          "type": "bool"
        }
      ],
      "name": "ApprovalForAll",
      "type": "event"
    },
    {
      "anonymous": false,
      "inputs": [
        {
          "indexed": true,
          "internalType": "address",
          "name": "previousOwner",
          "type": "address"
        },
        {
          "indexed": true,
          "internalType": "address",
          "name": "newOwner",
          "type": "address"
        }
      ],
      "name": "OwnershipTransferred",
      "type": "event"
    },
    {
      "anonymous": false,
      "inputs": [
        {
          "indexed": false,
          "internalType": "address",
          "name": "account",
          "type": "address"
        }
      ],
      "name": "Paused",
      "type": "event"
    },
    {
      "anonymous": false,
      "inputs": [
        {
          "indexed": true,
          "internalType": "address",
          "name": "operator",
          "type": "address"
        },
        {
          "indexed": true,
          "internalType": "address",
          "name": "from",
          "type": "address"
        },
        {
          "indexed": true,
          "internalType": "address",
          "name": "to",
          "type": "address"
        },
        {
          "indexed": false,
          "internalType": "uint256[]",
          "name": "ids",
          "type": "uint256[]"
        },
        {
          "indexed": false,
          "internalType": "uint256[]",
          "name": "values",
          "type": "uint256[]"
        }
      ],
      "name": "TransferBatch",
      "type": "event"
    },
    {
      "anonymous": false,
      "inputs": [
        {
          "indexed": true,
          "internalType": "address",
          "name": "operator",
          "type": "address"
        },
        {
          "indexed": true,
          "internalType": "address",
          "name": "from",
          "type": "address"
        },
        {
          "indexed": true,
          "internalType": "address",
          "name": "to",
          "type": "address"
        },
        {
          "indexed": false,
          "internalType": "uint256",
          "name": "id",
          "type": "uint256"
        },
        {
          "indexed": false,
          "internalType": "uint256",
          "name": "value",
          "type": "uint256"
        }
      ],
      "name": "TransferSingle",
      "type": "event"
    },
    {
      "anonymous": false,
      "inputs": [
        {
          "indexed": false,
          "internalType": "string",
          "name": "value",
          "type": "string"
        },
        {
          "indexed": true,
          "internalType": "uint256",
          "name": "id",
          "type": "uint256"
        }
      ],
      "name": "URI",
      "type": "event"
    },
    {
      "anonymous": false,
      "inputs": [
        {
          "indexed": false,
          "internalType": "address",
          "name": "account",
          "type": "address"
        }
      ],
      "name": "Unpaused",
      "type": "event"
    },
    {
      "inputs": [
        {
          "internalType": "address",
          "name": "",
          "type": "address"
        }
      ],
      "name": "admins",
      "outputs": [
        {
          "internalType": "bool",
          "name": "",
          "type": "bool"
        }
      ],
      "stateMutability": "view",
      "type": "function",
      "constant": true
    },
    {
      "inputs": [
        {
          "internalType": "address",
          "name": "account",
          "type": "address"
        },
        {
          "internalType": "uint256",
          "name": "id",
          "type": "uint256"
        }
      ],
      "name": "balanceOf",
      "outputs": [
        {
          "internalType": "uint256",
          "name": "",
          "type": "uint256"
        }
      ],
      "stateMutability": "view",
      "type": "function",
      "constant": true
    },
    {
      "inputs": [
        {
          "internalType": "address[]",
          "name": "accounts",
          "type": "address[]"
        },
        {
          "internalType": "uint256[]",
          "name": "ids",
          "type": "uint256[]"
        }
      ],
      "name": "balanceOfBatch",
      "outputs": [
        {
          "internalType": "uint256[]",
          "name": "",
          "type": "uint256[]"
        }
      ],
      "stateMutability": "view",
      "type": "function",
      "constant": true
    },
    {
      "inputs": [
        {
          "internalType": "address",
          "name": "account",
          "type": "address"
        },
        {
          "internalType": "uint256",
          "name": "id",
          "type": "uint256"
        },
        {
          "internalType": "uint256",
          "name": "value",
          "type": "uint256"
        }
      ],
      "name": "burn",
      "outputs": [],
      "stateMutability": "nonpayable",
      "type": "function"
    },
    {
      "inputs": [
        {
          "internalType": "address",
          "name": "account",
          "type": "address"
        },
        {
          "internalType": "uint256[]",
          "name": "ids",
          "type": "uint256[]"
        },
        {
          "internalType": "uint256[]",
          "name": "values",
          "type": "uint256[]"
        }
      ],
      "name": "burnBatch",
      "outputs": [],
      "stateMutability": "nonpayable",
      "type": "function"
    },
    {
      "inputs": [
        {
          "internalType": "uint256",
          "name": "id",
          "type": "uint256"
        }
      ],
      "name": "exists",
      "outputs": [
        {
          "internalType": "bool",
          "name": "",
          "type": "bool"
        }
      ],
      "stateMutability": "view",
      "type": "function",
      "constant": true
    },
    {
      "inputs": [
        {
          "internalType": "address",
          "name": "account",
          "type": "address"
        },
        {
          "internalType": "address",
          "name": "operator",
          "type": "address"
        }
      ],
      "name": "isApprovedForAll",
      "outputs": [
        {
          "internalType": "bool",
          "name": "",
          "type": "bool"
        }
      ],
      "stateMutability": "view",
      "type": "function",
      "constant": true
    },
    {
      "inputs": [],
      "name": "owner",
      "outputs": [
        {
          "internalType": "address",
          "name": "",
          "type": "address"
        }
      ],
      "stateMutability": "view",
      "type": "function",
      "constant": true
    },
    {
      "inputs": [],
      "name": "paused",
      "outputs": [
        {
          "internalType": "bool",
          "name": "",
          "type": "bool"
        }
      ],
      "stateMutability": "view",
      "type": "function",
      "constant": true
    },
    {
      "inputs": [],
      "name": "renounceOwnership",
      "outputs": [],
      "stateMutability": "nonpayable",
      "type": "function"
    },
    {
      "inputs": [
        {
          "internalType": "address",
          "name": "from",
          "type": "address"
        },
        {
          "internalType": "address",
          "name": "to",
          "type": "address"
        },
        {
          "internalType": "uint256[]",
          "name": "ids",
          "type": "uint256[]"
        },
        {
          "internalType": "uint256[]",
          "name": "amounts",
          "type": "uint256[]"
        },
        {
          "internalType": "bytes",
          "name": "data",
          "type": "bytes"
        }
      ],
      "name": "safeBatchTransferFrom",
      "outputs": [],
      "stateMutability": "nonpayable",
      "type": "function"
    },
    {
      "inputs": [
        {
          "internalType": "address",
          "name": "from",
          "type": "address"
        },
        {
          "internalType": "address",
          "name": "to",
          "type": "address"
        },
        {
          "internalType": "uint256",
          "name": "id",
          "type": "uint256"
        },
        {
          "internalType": "uint256",
          "name": "amount",
          "type": "uint256"
        },
        {
          "internalType": "bytes",
          "name": "data",
          "type": "bytes"
        }
      ],
      "name": "safeTransferFrom",
      "outputs": [],
      "stateMutability": "nonpayable",
      "type": "function"
    },
    {
      "inputs": [
        {
          "internalType": "address",
          "name": "operator",
          "type": "address"
        },
        {
          "internalType": "bool",
          "name": "approved",
          "type": "bool"
        }
      ],
      "name": "setApprovalForAll",
      "outputs": [],
      "stateMutability": "nonpayable",
      "type": "function"
    },
    {
      "inputs": [
        {
          "internalType": "bytes4",
          "name": "interfaceId",
          "type": "bytes4"
        }
      ],
      "name": "supportsInterface",
      "outputs": [
        {
          "internalType": "bool",
          "name": "",
          "type": "bool"
        }
      ],
      "stateMutability": "view",
      "type": "function",
      "constant": true
    },
    {
      "inputs": [
        {
          "internalType": "address",
          "name": "newOwner",
          "type": "address"
        }
      ],
      "name": "transferOwnership",
      "outputs": [],
      "stateMutability": "nonpayable",
      "type": "function"
    },
    {
      "inputs": [
        {
          "internalType": "uint256",
          "name": "",
          "type": "uint256"
        }
      ],
      "name": "uri",
      "outputs": [
        {
          "internalType": "string",
          "name": "",
          "type": "string"
        }
      ],
      "stateMutability": "view",
      "type": "function",
      "constant": true
    },
    {
      "inputs": [
        {
          "internalType": "address",
          "name": "newAdmin",
          "type": "address"
        }
      ],
      "name": "addAdmin",
      "outputs": [],
      "stateMutability": "nonpayable",
      "type": "function"
    },
    {
      "inputs": [
        {
          "internalType": "string",
          "name": "newuri",
          "type": "string"
        }
      ],
      "name": "setURI",
      "outputs": [],
      "stateMutability": "nonpayable",
      "type": "function"
    },
    {
      "inputs": [],
      "name": "pause",
      "outputs": [],
      "stateMutability": "nonpayable",
      "type": "function"
    },
    {
      "inputs": [],
      "name": "unpause",
      "outputs": [],
      "stateMutability": "nonpayable",
      "type": "function"
    },
    {
      "inputs": [],
      "name": "tokenCounter",
      "outputs": [
        {
          "internalType": "uint256",
          "name": "",
          "type": "uint256"
        }
      ],
      "stateMutability": "view",
      "type": "function",
      "constant": true
    },
    {
      "inputs": [
        {
          "internalType": "uint256",
          "name": "id",
          "type": "uint256"
        }
      ],
      "name": "totalSupply",
      "outputs": [
        {
          "internalType": "uint256",
          "name": "",
          "type": "uint256"
        }
      ],
      "stateMutability": "view",
      "type": "function",
      "constant": true
    },
    {
      "inputs": [
        {
          "internalType": "address",
          "name": "account",
          "type": "address"
        },
        {
          "internalType": "uint256",
          "name": "id",
          "type": "uint256"
        },
        {
          "internalType": "uint256",
          "name": "amount",
          "type": "uint256"
        },
        {
          "internalType": "bytes",
          "name": "data",
          "type": "bytes"
        }
      ],
      "name": "mint",
      "outputs": [],
      "stateMutability": "nonpayable",
      "type": "function"
    },
    {
      "inputs": [
        {
          "internalType": "address",
          "name": "to",
          "type": "address"
        },
        {
          "internalType": "uint256[]",
          "name": "ids",
          "type": "uint256[]"
        },
        {
          "internalType": "uint256[]",
          "name": "amounts",
          "type": "uint256[]"
        },
        {
          "internalType": "bytes",
          "name": "data",
          "type": "bytes"
        }
      ],
      "name": "mintBatch",
      "outputs": [],
      "stateMutability": "nonpayable",
      "type": "function"
    }
  ],
  "bytecode": "0x608060405234801562000010575f80fd5b5060405180602001604052805f8152506200003181620000ee60201b60201c565b5062000052620000466200010360201b60201c565b6200010a60201b60201c565b5f600360146101000a81548160ff021916908315150217905550600160075f3373ffffffffffffffffffffffffffffffffffffffff1673ffffffffffffffffffffffffffffffffffffffff1681526020019081526020015f205f6101000a81548160ff0219169083151502179055505f60068190555060405180602001604052805f81525060089081620000e7919062000431565b5062000515565b8060029081620000ff919062000431565b5050565b5f33905090565b5f60035f9054906101000a900473ffffffffffffffffffffffffffffffffffffffff1690508160035f6101000a81548173ffffffffffffffffffffffffffffffffffffffff021916908373ffffffffffffffffffffffffffffffffffffffff1602179055508173ffffffffffffffffffffffffffffffffffffffff168173ffffffffffffffffffffffffffffffffffffffff167f8be0079c531659141344cd1fd0a4f28419497f9722a3daafe3b4186f6b6457e060405160405180910390a35050565b5f81519050919050565b7f4e487b71000000000000000000000000000000000000000000000000000000005f52604160045260245ffd5b7f4e487b71000000000000000000000000000000000000000000000000000000005f52602260045260245ffd5b5f60028204905060018216806200024957607f821691505b6020821081036200025f576200025e62000204565b5b50919050565b5f819050815f5260205f209050919050565b5f6020601f8301049050919050565b5f82821b905092915050565b5f60088302620002c37fffffffffffffffffffffffffffffffffffffffffffffffffffffffffffffffff8262000286565b620002cf868362000286565b95508019841693508086168417925050509392505050565b5f819050919050565b5f819050919050565b5f62000319620003136200030d84620002e7565b620002f0565b620002e7565b9050919050565b5f819050919050565b6200033483620002f9565b6200034c620003438262000320565b84845462000292565b825550505050565b5f90565b6200036262000354565b6200036f81848462000329565b505050565b5b8181101562000396576200038a5f8262000358565b60018101905062000375565b5050565b601f821115620003e557620003af8162000265565b620003ba8462000277565b81016020851015620003ca578190505b620003e2620003d98562000277565b83018262000374565b50505b505050565b5f82821c905092915050565b5f620004075f1984600802620003ea565b1980831691505092915050565b5f620004218383620003f6565b9150826002028217905092915050565b6200043c82620001cd565b67ffffffffffffffff811115620004585762000457620001d7565b5b62000464825462000231565b620004718282856200039a565b5f60209050601f831160018114620004a7575f841562000492578287015190505b6200049e858262000414565b8655506200050d565b601f198416620004b78662000265565b5f5b82811015620004e057848901518255600182019150602085019450602081019050620004b9565b86831015620005005784890151620004fc601f891682620003f6565b8355505b6001600288020188555050505b505050505050565b6142e580620005235f395ff3fe608060405234801561000f575f80fd5b5060043610610155575f3560e01c806370480275116100c1578063bd85b0391161007a578063bd85b03914610397578063d082e381146103c7578063e985e9c5146103e5578063f242432a14610415578063f2fde38b14610431578063f5298aca1461044d57610155565b80637048027514610311578063715018a61461032d578063731133e9146103375780638456cb59146103535780638da5cb5b1461035d578063a22cb4651461037b57610155565b80633f4ba83a116101135780633f4ba83a1461023d578063429b62e5146102475780634e1273f4146102775780634f558e79146102a75780635c975abb146102d75780636b20c454146102f557610155565b8062fdd58e1461015957806301ffc9a71461018957806302fe5305146101b95780630e89341c146101d55780631f7fdffa146102055780632eb2c2d614610221575b5f80fd5b610173600480360381019061016e91906127ec565b610469565b6040516101809190612839565b60405180910390f35b6101a3600480360381019061019e91906128a7565b61052c565b6040516101b091906128ec565b60405180910390f35b6101d360048036038101906101ce9190612a41565b61060d565b005b6101ef60048036038101906101ea9190612a88565b610621565b6040516101fc9190612b2d565b60405180910390f35b61021f600480360381019061021a9190612caf565b6106b3565b005b61023b60048036038101906102369190612d67565b61076b565b005b61024561080c565b005b610261600480360381019061025c9190612e32565b61081e565b60405161026e91906128ec565b60405180910390f35b610291600480360381019061028c9190612f1d565b61083b565b60405161029e919061304a565b60405180910390f35b6102c160048036038101906102bc9190612a88565b610952565b6040516102ce91906128ec565b60405180910390f35b6102df610965565b6040516102ec91906128ec565b60405180910390f35b61030f600480360381019061030a919061306a565b61097b565b005b61032b60048036038101906103269190612e32565b610a18565b005b610335610a78565b005b610351600480360381019061034c91906130f2565b610a8b565b005b61035b610b71565b005b610365610b83565b6040516103729190613181565b60405180910390f35b610395600480360381019061039091906131c4565b610bab565b005b6103b160048036038101906103ac9190612a88565b610bc1565b6040516103be9190612839565b60405180910390f35b6103cf610bdb565b6040516103dc9190612839565b60405180910390f35b6103ff60048036038101906103fa9190613202565b610be4565b60405161040c91906128ec565b60405180910390f35b61042f600480360381019061042a9190613240565b610c72565b005b61044b60048036038101906104469190612e32565b610d13565b005b610467600480360381019061046291906132d3565b610d95565b005b5f8073ffffffffffffffffffffffffffffffffffffffff168373ffffffffffffffffffffffffffffffffffffffff16036104d8576040517f08c379a00000000000000000000000000000000000000000000000000000000081526004016104cf90613393565b60405180910390fd5b5f808381526020019081526020015f205f8473ffffffffffffffffffffffffffffffffffffffff1673ffffffffffffffffffffffffffffffffffffffff1681526020019081526020015f2054905092915050565b5f7fd9b67a26000000000000000000000000000000000000000000000000000000007bffffffffffffffffffffffffffffffffffffffffffffffffffffffff1916827bffffffffffffffffffffffffffffffffffffffffffffffffffffffff191614806105f657507f0e89341c000000000000000000000000000000000000000000000000000000007bffffffffffffffffffffffffffffffffffffffffffffffffffffffff1916827bffffffffffffffffffffffffffffffffffffffffffffffffffffffff1916145b80610606575061060582610e32565b5b9050919050565b610615610e9b565b61061e81610f19565b50565b606060028054610630906133de565b80601f016020809104026020016040519081016040528092919081815260200182805461065c906133de565b80156106a75780601f1061067e576101008083540402835291602001916106a7565b820191905f5260205f20905b81548152906001019060200180831161068a57829003601f168201915b50505050509050919050565b6106bb610e9b565b5f5b8351811015610758576106e98482815181106106dc576106db61340e565b5b6020026020010151610952565b6107055760065f8154809291906106ff90613468565b91905055505b60055f85838151811061071b5761071a61340e565b5b602002602001015181526020019081526020015f205f81548092919061074090613468565b9190505550808061075090613468565b9150506106bd565b5061076584848484610f2c565b50505050565b61077361114c565b73ffffffffffffffffffffffffffffffffffffffff168573ffffffffffffffffffffffffffffffffffffffff1614806107b957506107b8856107b361114c565b610be4565b5b6107f8576040517f08c379a00000000000000000000000000000000000000000000000000000000081526004016107ef9061351f565b60405180910390fd5b6108058585858585611153565b5050505050565b610814610e9b565b61081c611461565b565b6007602052805f5260405f205f915054906101000a900460ff1681565b60608151835114610881576040517f08c379a0000000000000000000000000000000000000000000000000000000008152600401610878906135ad565b60405180910390fd5b5f835167ffffffffffffffff81111561089d5761089c61291d565b5b6040519080825280602002602001820160405280156108cb5781602001602082028036833780820191505090505b5090505f5b8451811015610947576109178582815181106108ef576108ee61340e565b5b602002602001015185838151811061090a5761090961340e565b5b6020026020010151610469565b82828151811061092a5761092961340e565b5b6020026020010181815250508061094090613468565b90506108d0565b508091505092915050565b5f8061095d836114c3565b119050919050565b5f600360149054906101000a900460ff16905090565b61098361114c565b73ffffffffffffffffffffffffffffffffffffffff168373ffffffffffffffffffffffffffffffffffffffff1614806109c957506109c8836109c361114c565b610be4565b5b610a08576040517f08c379a00000000000000000000000000000000000000000000000000000000081526004016109ff9061351f565b60405180910390fd5b610a138383836114dd565b505050565b610a20610e9b565b600160075f8373ffffffffffffffffffffffffffffffffffffffff1673ffffffffffffffffffffffffffffffffffffffff1681526020019081526020015f205f6101000a81548160ff02191690831515021790555050565b610a80610e9b565b610a895f611798565b565b60075f3373ffffffffffffffffffffffffffffffffffffffff1673ffffffffffffffffffffffffffffffffffffffff1681526020019081526020015f205f9054906101000a900460ff16610b14576040517f08c379a0000000000000000000000000000000000000000000000000000000008152600401610b0b9061363b565b60405180910390fd5b610b1d83610952565b610b395760065f815480929190610b3390613468565b91905055505b60055f8481526020019081526020015f205f815480929190610b5a90613468565b9190505550610b6b8484848461185b565b50505050565b610b79610e9b565b610b816119fe565b565b5f60035f9054906101000a900473ffffffffffffffffffffffffffffffffffffffff16905090565b610bbd610bb661114c565b8383611a61565b5050565b5f60055f8381526020019081526020015f20549050919050565b5f600654905090565b5f60015f8473ffffffffffffffffffffffffffffffffffffffff1673ffffffffffffffffffffffffffffffffffffffff1681526020019081526020015f205f8373ffffffffffffffffffffffffffffffffffffffff1673ffffffffffffffffffffffffffffffffffffffff1681526020019081526020015f205f9054906101000a900460ff16905092915050565b610c7a61114c565b73ffffffffffffffffffffffffffffffffffffffff168573ffffffffffffffffffffffffffffffffffffffff161480610cc05750610cbf85610cba61114c565b610be4565b5b610cff576040517f08c379a0000000000000000000000000000000000000000000000000000000008152600401610cf69061351f565b60405180910390fd5b610d0c8585858585611bc8565b5050505050565b610d1b610e9b565b5f73ffffffffffffffffffffffffffffffffffffffff168173ffffffffffffffffffffffffffffffffffffffff1603610d89576040517f08c379a0000000000000000000000000000000000000000000000000000000008152600401610d80906136c9565b60405180910390fd5b610d9281611798565b50565b610d9d61114c565b73ffffffffffffffffffffffffffffffffffffffff168373ffffffffffffffffffffffffffffffffffffffff161480610de35750610de283610ddd61114c565b610be4565b5b610e22576040517f08c379a0000000000000000000000000000000000000000000000000000000008152600401610e199061351f565b60405180910390fd5b610e2d838383611e51565b505050565b5f7f01ffc9a7000000000000000000000000000000000000000000000000000000007bffffffffffffffffffffffffffffffffffffffffffffffffffffffff1916827bffffffffffffffffffffffffffffffffffffffffffffffffffffffff1916149050919050565b610ea361114c565b73ffffffffffffffffffffffffffffffffffffffff16610ec1610b83565b73ffffffffffffffffffffffffffffffffffffffff1614610f17576040517f08c379a0000000000000000000000000000000000000000000000000000000008152600401610f0e90613731565b60405180910390fd5b565b8060029081610f2891906138ec565b5050565b5f73ffffffffffffffffffffffffffffffffffffffff168473ffffffffffffffffffffffffffffffffffffffff1603610f9a576040517f08c379a0000000000000000000000000000000000000000000000000000000008152600401610f9190613a2b565b60405180910390fd5b8151835114610fde576040517f08c379a0000000000000000000000000000000000000000000000000000000008152600401610fd590613ab9565b60405180910390fd5b5f610fe761114c565b9050610ff7815f87878787612085565b5f5b84518110156110aa578381815181106110155761101461340e565b5b60200260200101515f808784815181106110325761103161340e565b5b602002602001015181526020019081526020015f205f8873ffffffffffffffffffffffffffffffffffffffff1673ffffffffffffffffffffffffffffffffffffffff1681526020019081526020015f205f8282546110909190613ad7565b9250508190555080806110a290613468565b915050610ff9565b508473ffffffffffffffffffffffffffffffffffffffff165f73ffffffffffffffffffffffffffffffffffffffff168273ffffffffffffffffffffffffffffffffffffffff167f4a39dc06d4c0dbc64b70af90fd698a233a518aa5d07e595d983b8c0526c8f7fb8787604051611121929190613b0a565b60405180910390a4611137815f878787876120a3565b611145815f878787876120ab565b5050505050565b5f33905090565b8151835114611197576040517f08c379a000000000000000000000000000000000000000000000000000000000815260040161118e90613ab9565b60405180910390fd5b5f73ffffffffffffffffffffffffffffffffffffffff168473ffffffffffffffffffffffffffffffffffffffff1603611205576040517f08c379a00000000000000000000000000000000000000000000000000000000081526004016111fc90613baf565b60405180910390fd5b5f61120e61114c565b905061121e818787878787612085565b5f5b84518110156113be575f85828151811061123d5761123c61340e565b5b602002602001015190505f85838151811061125b5761125a61340e565b5b602002602001015190505f805f8481526020019081526020015f205f8b73ffffffffffffffffffffffffffffffffffffffff1673ffffffffffffffffffffffffffffffffffffffff1681526020019081526020015f20549050818110156112f7576040517f08c379a00000000000000000000000000000000000000000000000000000000081526004016112ee90613c3d565b60405180910390fd5b8181035f808581526020019081526020015f205f8c73ffffffffffffffffffffffffffffffffffffffff1673ffffffffffffffffffffffffffffffffffffffff1681526020019081526020015f2081905550815f808581526020019081526020015f205f8b73ffffffffffffffffffffffffffffffffffffffff1673ffffffffffffffffffffffffffffffffffffffff1681526020019081526020015f205f8282546113a39190613ad7565b92505081905550505050806113b790613468565b9050611220565b508473ffffffffffffffffffffffffffffffffffffffff168673ffffffffffffffffffffffffffffffffffffffff168273ffffffffffffffffffffffffffffffffffffffff167f4a39dc06d4c0dbc64b70af90fd698a233a518aa5d07e595d983b8c0526c8f7fb8787604051611435929190613b0a565b60405180910390a461144b8187878787876120a3565b6114598187878787876120ab565b505050505050565b611469612281565b5f600360146101000a81548160ff0219169083151502179055507f5db9ee0a495bf2e6ff9c91a7834c1ba4fdd244a5e8aa4e537bd38aeae4b073aa6114ac61114c565b6040516114b99190613181565b60405180910390a1565b5f60045f8381526020019081526020015f20549050919050565b5f73ffffffffffffffffffffffffffffffffffffffff168373ffffffffffffffffffffffffffffffffffffffff160361154b576040517f08c379a000000000000000000000000000000000000000000000000000000000815260040161154290613ccb565b60405180910390fd5b805182511461158f576040517f08c379a000000000000000000000000000000000000000000000000000000000815260040161158690613ab9565b60405180910390fd5b5f61159861114c565b90506115b681855f868660405180602001604052805f815250612085565b5f5b83518110156116f7575f8482815181106115d5576115d461340e565b5b602002602001015190505f8483815181106115f3576115f261340e565b5b602002602001015190505f805f8481526020019081526020015f205f8973ffffffffffffffffffffffffffffffffffffffff1673ffffffffffffffffffffffffffffffffffffffff1681526020019081526020015f205490508181101561168f576040517f08c379a000000000000000000000000000000000000000000000000000000000815260040161168690613d59565b60405180910390fd5b8181035f808581526020019081526020015f205f8a73ffffffffffffffffffffffffffffffffffffffff1673ffffffffffffffffffffffffffffffffffffffff1681526020019081526020015f208190555050505080806116ef90613468565b9150506115b8565b505f73ffffffffffffffffffffffffffffffffffffffff168473ffffffffffffffffffffffffffffffffffffffff168273ffffffffffffffffffffffffffffffffffffffff167f4a39dc06d4c0dbc64b70af90fd698a233a518aa5d07e595d983b8c0526c8f7fb868660405161176e929190613b0a565b60405180910390a461179281855f868660405180602001604052805f8152506120a3565b50505050565b5f60035f9054906101000a900473ffffffffffffffffffffffffffffffffffffffff1690508160035f6101000a81548173ffffffffffffffffffffffffffffffffffffffff021916908373ffffffffffffffffffffffffffffffffffffffff1602179055508173ffffffffffffffffffffffffffffffffffffffff168173ffffffffffffffffffffffffffffffffffffffff167f8be0079c531659141344cd1fd0a4f28419497f9722a3daafe3b4186f6b6457e060405160405180910390a35050565b5f73ffffffffffffffffffffffffffffffffffffffff168473ffffffffffffffffffffffffffffffffffffffff16036118c9576040517f08c379a00000000000000000000000000000000000000000000000000000000081526004016118c090613a2b565b60405180910390fd5b5f6118d261114c565b90505f6118de856122ca565b90505f6118ea856122ca565b90506118fa835f89858589612085565b845f808881526020019081526020015f205f8973ffffffffffffffffffffffffffffffffffffffff1673ffffffffffffffffffffffffffffffffffffffff1681526020019081526020015f205f8282546119549190613ad7565b925050819055508673ffffffffffffffffffffffffffffffffffffffff165f73ffffffffffffffffffffffffffffffffffffffff168473ffffffffffffffffffffffffffffffffffffffff167fc3d58168c5ae7397731d063d5bbf3d657854427343f4c083240f7aacaa2d0f6289896040516119d1929190613d77565b60405180910390a46119e7835f898585896120a3565b6119f5835f89898989612342565b50505050505050565b611a06612518565b6001600360146101000a81548160ff0219169083151502179055507f62e78cea01bee320cd4e420270b5ea74000d11b0c9f74754ebdbfc544b05a258611a4a61114c565b604051611a579190613181565b60405180910390a1565b8173ffffffffffffffffffffffffffffffffffffffff168373ffffffffffffffffffffffffffffffffffffffff1603611acf576040517f08c379a0000000000000000000000000000000000000000000000000000000008152600401611ac690613e0e565b60405180910390fd5b8060015f8573ffffffffffffffffffffffffffffffffffffffff1673ffffffffffffffffffffffffffffffffffffffff1681526020019081526020015f205f8473ffffffffffffffffffffffffffffffffffffffff1673ffffffffffffffffffffffffffffffffffffffff1681526020019081526020015f205f6101000a81548160ff0219169083151502179055508173ffffffffffffffffffffffffffffffffffffffff168373ffffffffffffffffffffffffffffffffffffffff167f17307eab39ab6107e8899845ad3d59bd9653f200f220920489ca2b5937696c3183604051611bbb91906128ec565b60405180910390a3505050565b5f73ffffffffffffffffffffffffffffffffffffffff168473ffffffffffffffffffffffffffffffffffffffff1603611c36576040517f08c379a0000000000000000000000000000000000000000000000000000000008152600401611c2d90613baf565b60405180910390fd5b5f611c3f61114c565b90505f611c4b856122ca565b90505f611c57856122ca565b9050611c67838989858589612085565b5f805f8881526020019081526020015f205f8a73ffffffffffffffffffffffffffffffffffffffff1673ffffffffffffffffffffffffffffffffffffffff1681526020019081526020015f2054905085811015611cf9576040517f08c379a0000000000000000000000000000000000000000000000000000000008152600401611cf090613c3d565b60405180910390fd5b8581035f808981526020019081526020015f205f8b73ffffffffffffffffffffffffffffffffffffffff1673ffffffffffffffffffffffffffffffffffffffff1681526020019081526020015f2081905550855f808981526020019081526020015f205f8a73ffffffffffffffffffffffffffffffffffffffff1673ffffffffffffffffffffffffffffffffffffffff1681526020019081526020015f205f828254611da59190613ad7565b925050819055508773ffffffffffffffffffffffffffffffffffffffff168973ffffffffffffffffffffffffffffffffffffffff168573ffffffffffffffffffffffffffffffffffffffff167fc3d58168c5ae7397731d063d5bbf3d657854427343f4c083240f7aacaa2d0f628a8a604051611e22929190613d77565b60405180910390a4611e38848a8a86868a6120a3565b611e46848a8a8a8a8a612342565b505050505050505050565b5f73ffffffffffffffffffffffffffffffffffffffff168373ffffffffffffffffffffffffffffffffffffffff1603611ebf576040517f08c379a0000000000000000000000000000000000000000000000000000000008152600401611eb690613ccb565b60405180910390fd5b5f611ec861114c565b90505f611ed4846122ca565b90505f611ee0846122ca565b9050611efe83875f858560405180602001604052805f815250612085565b5f805f8781526020019081526020015f205f8873ffffffffffffffffffffffffffffffffffffffff1673ffffffffffffffffffffffffffffffffffffffff1681526020019081526020015f2054905084811015611f90576040517f08c379a0000000000000000000000000000000000000000000000000000000008152600401611f8790613d59565b60405180910390fd5b8481035f808881526020019081526020015f205f8973ffffffffffffffffffffffffffffffffffffffff1673ffffffffffffffffffffffffffffffffffffffff1681526020019081526020015f20819055505f73ffffffffffffffffffffffffffffffffffffffff168773ffffffffffffffffffffffffffffffffffffffff168573ffffffffffffffffffffffffffffffffffffffff167fc3d58168c5ae7397731d063d5bbf3d657854427343f4c083240f7aacaa2d0f628989604051612058929190613d77565b60405180910390a461207c84885f868660405180602001604052805f8152506120a3565b50505050505050565b61208d612518565b61209b868686868686612562565b505050505050565b505050505050565b6120ca8473ffffffffffffffffffffffffffffffffffffffff16612724565b15612279578373ffffffffffffffffffffffffffffffffffffffff1663bc197c8187878686866040518663ffffffff1660e01b8152600401612110959493929190613e7e565b6020604051808303815f875af192505050801561214b57506040513d601f19601f820116820180604052508101906121489190613ef8565b60015b6121f057612157613f2f565b806308c379a0036121b3575061216b613f4e565b8061217657506121b5565b806040517f08c379a00000000000000000000000000000000000000000000000000000000081526004016121aa9190612b2d565b60405180910390fd5b505b6040517f08c379a00000000000000000000000000000000000000000000000000000000081526004016121e79061404d565b60405180910390fd5b63bc197c8160e01b7bffffffffffffffffffffffffffffffffffffffffffffffffffffffff1916817bffffffffffffffffffffffffffffffffffffffffffffffffffffffff191614612277576040517f08c379a000000000000000000000000000000000000000000000000000000000815260040161226e906140db565b60405180910390fd5b505b505050505050565b612289610965565b6122c8576040517f08c379a00000000000000000000000000000000000000000000000000000000081526004016122bf90614143565b60405180910390fd5b565b60605f600167ffffffffffffffff8111156122e8576122e761291d565b5b6040519080825280602002602001820160405280156123165781602001602082028036833780820191505090505b50905082815f8151811061232d5761232c61340e565b5b60200260200101818152505080915050919050565b6123618473ffffffffffffffffffffffffffffffffffffffff16612724565b15612510578373ffffffffffffffffffffffffffffffffffffffff1663f23a6e6187878686866040518663ffffffff1660e01b81526004016123a7959493929190614161565b6020604051808303815f875af19250505080156123e257506040513d601f19601f820116820180604052508101906123df9190613ef8565b60015b612487576123ee613f2f565b806308c379a00361244a5750612402613f4e565b8061240d575061244c565b806040517f08c379a00000000000000000000000000000000000000000000000000000000081526004016124419190612b2d565b60405180910390fd5b505b6040517f08c379a000000000000000000000000000000000000000000000000000000000815260040161247e9061404d565b60405180910390fd5b63f23a6e6160e01b7bffffffffffffffffffffffffffffffffffffffffffffffffffffffff1916817bffffffffffffffffffffffffffffffffffffffffffffffffffffffff19161461250e576040517f08c379a0000000000000000000000000000000000000000000000000000000008152600401612505906140db565b60405180910390fd5b505b505050505050565b612520610965565b15612560576040517f08c379a000000000000000000000000000000000000000000000000000000000815260040161255790614203565b60405180910390fd5b565b612570868686868686612746565b5f73ffffffffffffffffffffffffffffffffffffffff168573ffffffffffffffffffffffffffffffffffffffff160361261c575f5b835181101561261a578281815181106125c1576125c061340e565b5b602002602001015160045f8684815181106125df576125de61340e565b5b602002602001015181526020019081526020015f205f8282546126029190613ad7565b925050819055508061261390613468565b90506125a5565b505b5f73ffffffffffffffffffffffffffffffffffffffff168473ffffffffffffffffffffffffffffffffffffffff160361271c575f5b835181101561271a575f84828151811061266e5761266d61340e565b5b602002602001015190505f84838151811061268c5761268b61340e565b5b602002602001015190505f60045f8481526020019081526020015f20549050818110156126ee576040517f08c379a00000000000000000000000000000000000000000000000000000000081526004016126e590614291565b60405180910390fd5b81810360045f8581526020019081526020015f20819055505050508061271390613468565b9050612651565b505b505050505050565b5f808273ffffffffffffffffffffffffffffffffffffffff163b119050919050565b505050505050565b5f604051905090565b5f80fd5b5f80fd5b5f73ffffffffffffffffffffffffffffffffffffffff82169050919050565b5f6127888261275f565b9050919050565b6127988161277e565b81146127a2575f80fd5b50565b5f813590506127b38161278f565b92915050565b5f819050919050565b6127cb816127b9565b81146127d5575f80fd5b50565b5f813590506127e6816127c2565b92915050565b5f806040838503121561280257612801612757565b5b5f61280f858286016127a5565b9250506020612820858286016127d8565b9150509250929050565b612833816127b9565b82525050565b5f60208201905061284c5f83018461282a565b92915050565b5f7fffffffff0000000000000000000000000000000000000000000000000000000082169050919050565b61288681612852565b8114612890575f80fd5b50565b5f813590506128a18161287d565b92915050565b5f602082840312156128bc576128bb612757565b5b5f6128c984828501612893565b91505092915050565b5f8115159050919050565b6128e6816128d2565b82525050565b5f6020820190506128ff5f8301846128dd565b92915050565b5f80fd5b5f80fd5b5f601f19601f8301169050919050565b7f4e487b71000000000000000000000000000000000000000000000000000000005f52604160045260245ffd5b6129538261290d565b810181811067ffffffffffffffff821117156129725761297161291d565b5b80604052505050565b5f61298461274e565b9050612990828261294a565b919050565b5f67ffffffffffffffff8211156129af576129ae61291d565b5b6129b88261290d565b9050602081019050919050565b828183375f83830152505050565b5f6129e56129e084612995565b61297b565b905082815260208101848484011115612a0157612a00612909565b5b612a0c8482856129c5565b509392505050565b5f82601f830112612a2857612a27612905565b5b8135612a388482602086016129d3565b91505092915050565b5f60208284031215612a5657612a55612757565b5b5f82013567ffffffffffffffff811115612a7357612a7261275b565b5b612a7f84828501612a14565b91505092915050565b5f60208284031215612a9d57612a9c612757565b5b5f612aaa848285016127d8565b91505092915050565b5f81519050919050565b5f82825260208201905092915050565b5f5b83811015612aea578082015181840152602081019050612acf565b5f8484015250505050565b5f612aff82612ab3565b612b098185612abd565b9350612b19818560208601612acd565b612b228161290d565b840191505092915050565b5f6020820190508181035f830152612b458184612af5565b905092915050565b5f67ffffffffffffffff821115612b6757612b6661291d565b5b602082029050602081019050919050565b5f80fd5b5f612b8e612b8984612b4d565b61297b565b90508083825260208201905060208402830185811115612bb157612bb0612b78565b5b835b81811015612bda5780612bc688826127d8565b845260208401935050602081019050612bb3565b5050509392505050565b5f82601f830112612bf857612bf7612905565b5b8135612c08848260208601612b7c565b91505092915050565b5f67ffffffffffffffff821115612c2b57612c2a61291d565b5b612c348261290d565b9050602081019050919050565b5f612c53612c4e84612c11565b61297b565b905082815260208101848484011115612c6f57612c6e612909565b5b612c7a8482856129c5565b509392505050565b5f82601f830112612c9657612c95612905565b5b8135612ca6848260208601612c41565b91505092915050565b5f805f8060808587031215612cc757612cc6612757565b5b5f612cd4878288016127a5565b945050602085013567ffffffffffffffff811115612cf557612cf461275b565b5b612d0187828801612be4565b935050604085013567ffffffffffffffff811115612d2257612d2161275b565b5b612d2e87828801612be4565b925050606085013567ffffffffffffffff811115612d4f57612d4e61275b565b5b612d5b87828801612c82565b91505092959194509250565b5f805f805f60a08688031215612d8057612d7f612757565b5b5f612d8d888289016127a5565b9550506020612d9e888289016127a5565b945050604086013567ffffffffffffffff811115612dbf57612dbe61275b565b5b612dcb88828901612be4565b935050606086013567ffffffffffffffff811115612dec57612deb61275b565b5b612df888828901612be4565b925050608086013567ffffffffffffffff811115612e1957612e1861275b565b5b612e2588828901612c82565b9150509295509295909350565b5f60208284031215612e4757612e46612757565b5b5f612e54848285016127a5565b91505092915050565b5f67ffffffffffffffff821115612e7757612e7661291d565b5b602082029050602081019050919050565b5f612e9a612e9584612e5d565b61297b565b90508083825260208201905060208402830185811115612ebd57612ebc612b78565b5b835b81811015612ee65780612ed288826127a5565b845260208401935050602081019050612ebf565b5050509392505050565b5f82601f830112612f0457612f03612905565b5b8135612f14848260208601612e88565b91505092915050565b5f8060408385031215612f3357612f32612757565b5b5f83013567ffffffffffffffff811115612f5057612f4f61275b565b5b612f5c85828601612ef0565b925050602083013567ffffffffffffffff811115612f7d57612f7c61275b565b5b612f8985828601612be4565b9150509250929050565b5f81519050919050565b5f82825260208201905092915050565b5f819050602082019050919050565b612fc5816127b9565b82525050565b5f612fd68383612fbc565b60208301905092915050565b5f602082019050919050565b5f612ff882612f93565b6130028185612f9d565b935061300d83612fad565b805f5b8381101561303d5781516130248882612fcb565b975061302f83612fe2565b925050600181019050613010565b5085935050505092915050565b5f6020820190508181035f8301526130628184612fee565b905092915050565b5f805f6060848603121561308157613080612757565b5b5f61308e868287016127a5565b935050602084013567ffffffffffffffff8111156130af576130ae61275b565b5b6130bb86828701612be4565b925050604084013567ffffffffffffffff8111156130dc576130db61275b565b5b6130e886828701612be4565b9150509250925092565b5f805f806080858703121561310a57613109612757565b5b5f613117878288016127a5565b9450506020613128878288016127d8565b9350506040613139878288016127d8565b925050606085013567ffffffffffffffff81111561315a5761315961275b565b5b61316687828801612c82565b91505092959194509250565b61317b8161277e565b82525050565b5f6020820190506131945f830184613172565b92915050565b6131a3816128d2565b81146131ad575f80fd5b50565b5f813590506131be8161319a565b92915050565b5f80604083850312156131da576131d9612757565b5b5f6131e7858286016127a5565b92505060206131f8858286016131b0565b9150509250929050565b5f806040838503121561321857613217612757565b5b5f613225858286016127a5565b9250506020613236858286016127a5565b9150509250929050565b5f805f805f60a0868803121561325957613258612757565b5b5f613266888289016127a5565b9550506020613277888289016127a5565b9450506040613288888289016127d8565b9350506060613299888289016127d8565b925050608086013567ffffffffffffffff8111156132ba576132b961275b565b5b6132c688828901612c82565b9150509295509295909350565b5f805f606084860312156132ea576132e9612757565b5b5f6132f7868287016127a5565b9350506020613308868287016127d8565b9250506040613319868287016127d8565b9150509250925092565b7f455243313135353a2061646472657373207a65726f206973206e6f74206120765f8201527f616c6964206f776e657200000000000000000000000000000000000000000000602082015250565b5f61337d602a83612abd565b915061338882613323565b604082019050919050565b5f6020820190508181035f8301526133aa81613371565b9050919050565b7f4e487b71000000000000000000000000000000000000000000000000000000005f52602260045260245ffd5b5f60028204905060018216806133f557607f821691505b602082108103613408576134076133b1565b5b50919050565b7f4e487b71000000000000000000000000000000000000000000000000000000005f52603260045260245ffd5b7f4e487b71000000000000000000000000000000000000000000000000000000005f52601160045260245ffd5b5f613472826127b9565b91507fffffffffffffffffffffffffffffffffffffffffffffffffffffffffffffffff82036134a4576134a361343b565b5b600182019050919050565b7f455243313135353a2063616c6c6572206973206e6f7420746f6b656e206f776e5f8201527f6572206f7220617070726f766564000000000000000000000000000000000000602082015250565b5f613509602e83612abd565b9150613514826134af565b604082019050919050565b5f6020820190508181035f830152613536816134fd565b9050919050565b7f455243313135353a206163636f756e747320616e6420696473206c656e6774685f8201527f206d69736d617463680000000000000000000000000000000000000000000000602082015250565b5f613597602983612abd565b91506135a28261353d565b604082019050919050565b5f6020820190508181035f8301526135c48161358b565b9050919050565b7f4f6e6c792061646d696e732063616e20706572666f726d2074686973206f70655f8201527f726174696f6e0000000000000000000000000000000000000000000000000000602082015250565b5f613625602683612abd565b9150613630826135cb565b604082019050919050565b5f6020820190508181035f83015261365281613619565b9050919050565b7f4f776e61626c653a206e6577206f776e657220697320746865207a65726f20615f8201527f6464726573730000000000000000000000000000000000000000000000000000602082015250565b5f6136b3602683612abd565b91506136be82613659565b604082019050919050565b5f6020820190508181035f8301526136e0816136a7565b9050919050565b7f4f776e61626c653a2063616c6c6572206973206e6f7420746865206f776e65725f82015250565b5f61371b602083612abd565b9150613726826136e7565b602082019050919050565b5f6020820190508181035f8301526137488161370f565b9050919050565b5f819050815f5260205f209050919050565b5f6020601f8301049050919050565b5f82821b905092915050565b5f600883026137ab7fffffffffffffffffffffffffffffffffffffffffffffffffffffffffffffffff82613770565b6137b58683613770565b95508019841693508086168417925050509392505050565b5f819050919050565b5f6137f06137eb6137e6846127b9565b6137cd565b6127b9565b9050919050565b5f819050919050565b613809836137d6565b61381d613815826137f7565b84845461377c565b825550505050565b5f90565b613831613825565b61383c818484613800565b505050565b5b8181101561385f576138545f82613829565b600181019050613842565b5050565b601f8211156138a4576138758161374f565b61387e84613761565b8101602085101561388d578190505b6138a161389985613761565b830182613841565b50505b505050565b5f82821c905092915050565b5f6138c45f19846008026138a9565b1980831691505092915050565b5f6138dc83836138b5565b9150826002028217905092915050565b6138f582612ab3565b67ffffffffffffffff81111561390e5761390d61291d565b5b61391882546133de565b613923828285613863565b5f60209050601f831160018114613954575f8415613942578287015190505b61394c85826138d1565b8655506139b3565b601f1984166139628661374f565b5f5b8281101561398957848901518255600182019150602085019450602081019050613964565b868310156139a657848901516139a2601f8916826138b5565b8355505b6001600288020188555050505b505050505050565b7f455243313135353a206d696e7420746f20746865207a65726f206164647265735f8201527f7300000000000000000000000000000000000000000000000000000000000000602082015250565b5f613a15602183612abd565b9150613a20826139bb565b604082019050919050565b5f6020820190508181035f830152613a4281613a09565b9050919050565b7f455243313135353a2069647320616e6420616d6f756e7473206c656e677468205f8201527f6d69736d61746368000000000000000000000000000000000000000000000000602082015250565b5f613aa3602883612abd565b9150613aae82613a49565b604082019050919050565b5f6020820190508181035f830152613ad081613a97565b9050919050565b5f613ae1826127b9565b9150613aec836127b9565b9250828201905080821115613b0457613b0361343b565b5b92915050565b5f6040820190508181035f830152613b228185612fee565b90508181036020830152613b368184612fee565b90509392505050565b7f455243313135353a207472616e7366657220746f20746865207a65726f2061645f8201527f6472657373000000000000000000000000000000000000000000000000000000602082015250565b5f613b99602583612abd565b9150613ba482613b3f565b604082019050919050565b5f6020820190508181035f830152613bc681613b8d565b9050919050565b7f455243313135353a20696e73756666696369656e742062616c616e636520666f5f8201527f72207472616e7366657200000000000000000000000000000000000000000000602082015250565b5f613c27602a83612abd565b9150613c3282613bcd565b604082019050919050565b5f6020820190508181035f830152613c5481613c1b565b9050919050565b7f455243313135353a206275726e2066726f6d20746865207a65726f20616464725f8201527f6573730000000000000000000000000000000000000000000000000000000000602082015250565b5f613cb5602383612abd565b9150613cc082613c5b565b604082019050919050565b5f6020820190508181035f830152613ce281613ca9565b9050919050565b7f455243313135353a206275726e20616d6f756e7420657863656564732062616c5f8201527f616e636500000000000000000000000000000000000000000000000000000000602082015250565b5f613d43602483612abd565b9150613d4e82613ce9565b604082019050919050565b5f6020820190508181035f830152613d7081613d37565b9050919050565b5f604082019050613d8a5f83018561282a565b613d97602083018461282a565b9392505050565b7f455243313135353a2073657474696e6720617070726f76616c207374617475735f8201527f20666f722073656c660000000000000000000000000000000000000000000000602082015250565b5f613df8602983612abd565b9150613e0382613d9e565b604082019050919050565b5f6020820190508181035f830152613e2581613dec565b9050919050565b5f81519050919050565b5f82825260208201905092915050565b5f613e5082613e2c565b613e5a8185613e36565b9350613e6a818560208601612acd565b613e738161290d565b840191505092915050565b5f60a082019050613e915f830188613172565b613e9e6020830187613172565b8181036040830152613eb08186612fee565b90508181036060830152613ec48185612fee565b90508181036080830152613ed88184613e46565b90509695505050505050565b5f81519050613ef28161287d565b92915050565b5f60208284031215613f0d57613f0c612757565b5b5f613f1a84828501613ee4565b91505092915050565b5f8160e01c9050919050565b5f60033d1115613f4b5760045f803e613f485f51613f23565b90505b90565b5f60443d10613fda57613f5f61274e565b60043d036004823e80513d602482011167ffffffffffffffff82111715613f87575050613fda565b808201805167ffffffffffffffff811115613fa55750505050613fda565b80602083010160043d038501811115613fc2575050505050613fda565b613fd18260200185018661294a565b82955050505050505b90565b7f455243313135353a207472616e7366657220746f206e6f6e2d455243313135355f8201527f526563656976657220696d706c656d656e746572000000000000000000000000602082015250565b5f614037603483612abd565b915061404282613fdd565b604082019050919050565b5f6020820190508181035f8301526140648161402b565b9050919050565b7f455243313135353a204552433131353552656365697665722072656a656374655f8201527f6420746f6b656e73000000000000000000000000000000000000000000000000602082015250565b5f6140c5602883612abd565b91506140d08261406b565b604082019050919050565b5f6020820190508181035f8301526140f2816140b9565b9050919050565b7f5061757361626c653a206e6f74207061757365640000000000000000000000005f82015250565b5f61412d601483612abd565b9150614138826140f9565b602082019050919050565b5f6020820190508181035f83015261415a81614121565b9050919050565b5f60a0820190506141745f830188613172565b6141816020830187613172565b61418e604083018661282a565b61419b606083018561282a565b81810360808301526141ad8184613e46565b90509695505050505050565b7f5061757361626c653a20706175736564000000000000000000000000000000005f82015250565b5f6141ed601083612abd565b91506141f8826141b9565b602082019050919050565b5f6020820190508181035f83015261421a816141e1565b9050919050565b7f455243313135353a206275726e20616d6f756e74206578636565647320746f745f8201527f616c537570706c79000000000000000000000000000000000000000000000000602082015250565b5f61427b602883612abd565b915061428682614221565b604082019050919050565b5f6020820190508181035f8301526142a88161426f565b905091905056fea2646970667358221220d59e45bd6db76158d247e261af7cb46229567b33db4ac3658678abea52f16d2d64736f6c63430008140033",
  "immutableReferences": {},
  "source": "// SPDX-License-Identifier: MIT\npragma solidity ^0.8.9;\n\nimport \"@openzeppelin/contracts/token/ERC1155/ERC1155.sol\";\nimport \"@openzeppelin/contracts/access/Ownable.sol\";\nimport \"@openzeppelin/contracts/security/Pausable.sol\";\nimport \"@openzeppelin/contracts/token/ERC1155/extensions/ERC1155Burnable.sol\";\nimport \"@openzeppelin/contracts/token/ERC1155/extensions/ERC1155Supply.sol\";\n\ncontract POM is ERC1155, Ownable, Pausable, ERC1155Burnable, ERC1155Supply {\n    mapping(uint256 => uint256) private _totalSupply;\n    uint256 private _tokenCounter;\n    mapping(address => bool) public admins;\n    // Used as the URI for all token types by relying on ID substitution, e.g. https://token-cdn-domain/{id}.json\n    string private _uri;\n\n    constructor() ERC1155(\"\") {\n        admins[msg.sender] = true; // Set the deployer as the initial admin\n        _tokenCounter= 0;\n        _uri = \"\";\n    }\n\n    modifier onlyAdmin() {\n        require(admins[msg.sender], \"Only admins can perform this operation\");\n        _;\n    }\n\n    function addAdmin(address newAdmin) public onlyOwner {\n        admins[newAdmin] = true;\n    }\n\n    function setURI(string memory newuri) public onlyOwner {\n        _setURI(newuri);\n    }\n\n    function pause() public onlyOwner {\n        _pause();\n    }\n\n    function unpause() public onlyOwner {\n        _unpause();\n    }\n\n    function tokenCounter() \n    public \n    view \n    returns (uint256) \n    {\n        return _tokenCounter;\n    }\n    \n    function totalSupply(uint256 id) \n    public \n    view \n    override\n    returns (uint256) \n    {\n        return _totalSupply[id];\n    }\n\n    function mint(address account, uint256 id, uint256 amount, bytes memory data)\n        public\n        onlyAdmin \n    {\n        if (!exists(id)) {\n            _tokenCounter++;\n         }\n        _totalSupply[id]++;\n        _mint(account, id, amount, data);\n    }\n\n    function mintBatch(address to, uint256[] memory ids, uint256[] memory amounts, bytes memory data)\n        public\n        onlyOwner\n    {\n        for (uint j = 0; j < ids.length; j++) {\n            if (!exists(ids[j])) {\n            _tokenCounter++;\n         }\n        _totalSupply[ids[j]]++;\n        }\n        _mintBatch(to, ids, amounts, data);\n    }\n\n    function _beforeTokenTransfer(address operator, address from, address to, uint256[] memory ids, uint256[] memory amounts, bytes memory data)\n        internal\n        whenNotPaused\n        override(ERC1155, ERC1155Supply)\n    {\n        super._beforeTokenTransfer(operator, from, to, ids, amounts, data);\n    }\n}",
  "sourcePath": "D:\\Career\\Web3\\ETHSEOUL2023\\contracts\\POM.sol",
  "compiler": {
    "name": "solc",
    "version": "0.8.20+commit.a1b79de6.Emscripten.clang"
  },
  "schemaVersion": "3.4.14",
  "updatedAt": "2023-06-03T15:31:17.663Z",
  "networkType": "ethereum",
  "devdoc": {
    "events": {
      "ApprovalForAll(address,address,bool)": {
        "details": "Emitted when `account` grants or revokes permission to `operator` to transfer their tokens, according to `approved`."
      },
      "Paused(address)": {
        "details": "Emitted when the pause is triggered by `account`."
      },
      "TransferBatch(address,address,address,uint256[],uint256[])": {
        "details": "Equivalent to multiple {TransferSingle} events, where `operator`, `from` and `to` are the same for all transfers."
      },
      "TransferSingle(address,address,address,uint256,uint256)": {
        "details": "Emitted when `value` tokens of token type `id` are transferred from `from` to `to` by `operator`."
      },
      "URI(string,uint256)": {
        "details": "Emitted when the URI for token type `id` changes to `value`, if it is a non-programmatic URI. If an {URI} event was emitted for `id`, the standard https://eips.ethereum.org/EIPS/eip-1155#metadata-extensions[guarantees] that `value` will equal the value returned by {IERC1155MetadataURI-uri}."
      },
      "Unpaused(address)": {
        "details": "Emitted when the pause is lifted by `account`."
      }
    },
    "kind": "dev",
    "methods": {
      "balanceOf(address,uint256)": {
        "details": "See {IERC1155-balanceOf}. Requirements: - `account` cannot be the zero address."
      },
      "balanceOfBatch(address[],uint256[])": {
        "details": "See {IERC1155-balanceOfBatch}. Requirements: - `accounts` and `ids` must have the same length."
      },
      "exists(uint256)": {
        "details": "Indicates whether any token exist with a given id, or not."
      },
      "isApprovedForAll(address,address)": {
        "details": "See {IERC1155-isApprovedForAll}."
      },
      "owner()": {
        "details": "Returns the address of the current owner."
      },
      "paused()": {
        "details": "Returns true if the contract is paused, and false otherwise."
      },
      "renounceOwnership()": {
        "details": "Leaves the contract without owner. It will not be possible to call `onlyOwner` functions. Can only be called by the current owner. NOTE: Renouncing ownership will leave the contract without an owner, thereby disabling any functionality that is only available to the owner."
      },
      "safeBatchTransferFrom(address,address,uint256[],uint256[],bytes)": {
        "details": "See {IERC1155-safeBatchTransferFrom}."
      },
      "safeTransferFrom(address,address,uint256,uint256,bytes)": {
        "details": "See {IERC1155-safeTransferFrom}."
      },
      "setApprovalForAll(address,bool)": {
        "details": "See {IERC1155-setApprovalForAll}."
      },
      "supportsInterface(bytes4)": {
        "details": "See {IERC165-supportsInterface}."
      },
      "totalSupply(uint256)": {
        "details": "Total amount of tokens in with a given id."
      },
      "transferOwnership(address)": {
        "details": "Transfers ownership of the contract to a new account (`newOwner`). Can only be called by the current owner."
      },
      "uri(uint256)": {
        "details": "See {IERC1155MetadataURI-uri}. This implementation returns the same URI for *all* token types. It relies on the token type ID substitution mechanism https://eips.ethereum.org/EIPS/eip-1155#metadata[defined in the EIP]. Clients calling this function must replace the `\\{id\\}` substring with the actual token type ID."
      }
    },
    "version": 1
  },
  "userdoc": {
    "kind": "user",
    "methods": {},
    "version": 1
  }
}